:2000000000802020AB850000434400004344000000000000000000000000000000000000E2
:2000200000000000000000000000000043440000000000000000000043440000434400002B
:200040004344000035640000434400006585000043440000434400004344000043440000F3
:2000600000000000434400004344000000000000000000002D8100004344000005810000B7
:20008000434400004344000043440000B54E000043440000434400000000000000000000BA
:2000A00043440000434400000000000000000000434400000000000043440000434400009D
:2000C000F0B585B001273D05FD4E35606424204607F0B6FD3046103804900560204607F050
:2000E000AFFDF8043060204607F0AAFD3806306001460290F805F34E30600390FD07356023
:200100003C0734603746103F3D60356034603D60356034603D6035603C603D60356034601C
:200120003D60356034603D60356034603D6035603C603D60386004980160782007F080FD27
:200140000299DF4B1960039A326035603C603D60356034603D6035603C603D6035603C609F
:200160003D60356034603D60356034603D60356034603D6035603C603D603A60049801602B
:200180003260356034603D60356034603D60356034603D60356034603D60356034603D60EF
:2001A00035603C603D60356034603D6035603C603D603A603260356034603D6035603460C2
:2001C0003D6035603C603D6035603C603D6035603C603D6035603C603D60356034603D6084
:2001E000356034603D603A603260356034603D60356034603D6035603C603D6035603C6082
:200200003D6035603C603D6035603C603D60356034603D60356034603D603A601960326074
:2002200035603C603D60356034603D6035603C603D6035603C603D60356034603D60356033
:2002400034603D6035603C603D60356034603D603A6001603260356034603D60356034605D
:200260003D60356034603D60356034603D60356034603D6035603C603D60356034603D60FB
:2002800035603C603D603A603260356034603D60356034603D6035603C603D6035603C60D9
:2002A0003D6035603C603D6035603C603D60356034603D60356034603D603A6032603560B8
:2002C00034603D60356034603D6035603C603D6035603C603D6035603C603D6035603C608C
:2002E0003D60356034603D60356034603D603A601960326035603C603D60356034603D609C
:2003000035603C603D6035603C603D60356034603D60356034603D6035603C603D60356052
:200320003C603D603A6001603260356034603D60356034603D60356034603D60356034607C
:200340003D60356034603D6035603C603D60356034603D6035603C603D603A603260356017
:2003600034603D60356034603D6035603C603D6035603C603D6035603C603D6035603C60EB
:200380003D60356034603D60356034603D603A603260356034603D60356034603D603560E7
:2003A0003C603D6035603C603D6035603C603D6035603C603D60356034603D6035603460AB
:2003C0003D603A603260356034603D60356034603D60356034603D60356034603D603560A7
:2003E00034603D6035603C603D60356034603D6035603C603D603A603260356034603D6078
:20040000356034603D6035603C603D6035603C603D6035603C603D6035603C603D60356049
:2004200034603D60356034603D603A603260356034603D60356034603D6035603C603D603F
:2004400035603C603D6035603C603D6035603C603D60356034603D60356034603D603A600C
:200460001960326035603C603D60356034603D6035603C603D6035603C603D603560346018
:200480003D6035603C603D60356034603D60356034603D603A6001603260356034603D6012
:2004A000356034603D60356034603D60356034603D60356034603D603560346004E0C04611
:2004C000A0320A40A0120A403D6035603C603D6035603C603D603A601960326035603C60F5
:2004E0003D6035603C603D60356034603D60356034603D60356034603D60356034603D6079
:20050000356034603D60356034603D603A600160326035603C603D60356034603D60356099
:200520003C603D60356034603D6035603C603D60356034603D6035603C603D6035603C6029
:200540003D603A603260356034603D60356034603D60356034603D60356034603D60356025
:200560003C603D60356034603D6035603C603D6035603C603D603A603260356034603D60EE
:20058000356034603D60356034603D60356034603D60356034603D6035603C603D603560E0
:2005A00034603D60356034603D603A601960326035603C603D6035603C603D6035603460DA
:2005C0003D60356034603D60356034603D60356034603D60356034603D6035603C603D6098
:2005E0003A600160326035603C603D6035603C603D60356034603D60356034603D603560B1
:2006000034603D6035603C603D60356034603D6035603C603D603A601960326035603C6071
:200620003D6035603C603D60356034603D60356034603D60356034603D60356034603D6037
:2006400035603C603D60356034603D603A6001603260356034603D60356034603D60356058
:2006600034603D60356034603D6035603C603D6035603C603D60356034603D6035603C60F0
:200680003D603A603260356034603D60356034603D60356034603D60356034603D603560E4
:2006A00034603D60356034603D60356034603D60356034603D603A601960326035603C60E1
:2006C0003D6035603C603D60356034603D60356034603D60356034603D60356034603D6097
:2006E00035603C603D6035603C603D603A600160326035603C603D60356034603D603560A8
:2007000034603D60356034603D6035603C603D6035603C603D60356034603D6035603C604F
:200720003D603A603260356034603D6035603C603D6035603C603D60356034603D60356033
:200740003C603D60356034603D6035603C603D60356034603D603A601960326035603C6030
:200760003D6035603C603D60356034603D60356034603D60356034603D6035603C603D60EE
:20078000356034603D60356034603D603A600160326035603C603D60356034603D60356017
:2007A00034603D60356034603D6035603C603D6035603C603D60356034603D6035603C60AF
:2007C0003D603A60326035603C603D6035603C603D6035603C603D60356034603D6035608B
:2007E0003C603D6035603C603D6035603C603D60356034603D603A601960326035603C6088
:200800003D6035603C603D60356034603D60356034603D60356034603D6035603C603D604D
:20082000356034603D6035603C603D603A6001603260356034603D60356034603D60356076
:2008400034603D60356034603D6035603C603D6035603C603D6035603C603D6035603C6006
:200860003D603A601960326035603C603D6035603C603D6035603C603D60356034603D6006
:20088000356034603D60356034603D60356034603D60356034603D603A600160326035601E
:2008A00034603D60356034603D60356034603D60356034603D60356034603D6035603C60BE
:2008C0003D6035603C603D6035603C603D603A603260356034603D60356034603D60356092
:2008E00034603D60356034603D6035603C603D6035603C603D6035603C603D60356034606E
:200900003D603A603260356034603D60356034603D60356034603D60356034603D60356061
:200920003C603D60356034603D60356034603D60356034603D603A603260356034603D603A
:20094000356034603D60356034603D60356034603D60356034603D6035603C603D6035601C
:200960003C603D6035603C603D603A603260356034603D60356034603D60356034603D60F2
:2009800035603C603D60356034603D60356034603D60356034603D60356034603D603A60D7
:2009A0003260356034603D60356034603D60356034603D60356034603D60356034603D60C7
:2009C00035603C603D6035603C603D6035603C603D603A603260356034603D603560346092
:2009E0003D60356034603D60356034603D60356034603D60356034603D6035603C603D6074
:200A0000356034603D603A603260356034603D60356034603D60356034603D603560346069
:200A20003D60356034603D6035603C603D6035603C603D6035603C603D603A603260356028
:200A400034603D60356034603D60356034603D60356034603D6035603C603D60356034601C
:200A60003D60356034603D6035603C603D603A603260356034603D60356034603D603560F8
:200A800034603D60356034603D6035603C603D6035603C603D6035603C603D6035603C60C4
:200AA0003D603A603260356034603D60356034603D6035603C603D60356034603D603560B8
:200AC00034603D6035603C603D60356034603D6035603C603D603A603260356034603D6091
:200AE000356034603D6035603C603D6035603C603D60356034603D6035603C603D6035606B
:200B00003C603D60356034603D603A603260356034603D60356034603D60356034603D6058
:200B2000356034603D60356034603D60356034603D60356034603D60356034603D603A603D
:200B40003260356034603D60356034603D60356034603D60356034603D6035603C603D601D
:200B6000356034603D60356034603D60356034603D603A603260356034603D603560346008
:200B80003D60356034603D60356034603D60356034603D6035603C603D60356034603D60D2
:200BA000356034603D603A603260356034603D60356034603D60356034603D6035603C60C0
:200BC0003D60356034603D60356034603D60356034603D60356034603D603A6019603260BB
:200BE00035603C603D6035603C603D6035603C603D60356034603D60356034603D6035606A
:200C000034603D60356034603D6035603C603D603A6001603260356034603D603560346093
:200C20003D60356034603D60356034603D6035603C603D60356034603D6035603C603D6029
:200C4000356034603D603A603260356034603D60356034603D60356034603D603560346027
:200C60003D6035603C603D6035603C603D60356034603D6035603C603D603A6032603560E6
:200C800034603D60356034603D60356034603D60356034603D6035603C603D6035603460DA
:200CA0003D60356034603D60356034603D603A603260356034603D60356034603D603560BE
:200CC00034603D60356034603D60356034603D6035603C603D6035603C603D6035603C608A
:200CE0003D603A603260356034603D60356034603D60356034603D60356034603D6035607E
:200D00003C603D6035603C603D6035603C603D6035603C603D603A603260356034603D603E
:200D2000356034603D60356034603D60356034603D60356034603D6035603C603D60356038
:200D40003C603D6035603C603D603A603260356034603D60356034603D60356034603D600E
:200D6000356034603D60356034603D60356034603D6035603C603D60356034603D603A60F3
:200D80003260356034603D60356034603D60356034603D60356034603D60356034603D60E3
:200DA00035603C603D6035603C603D6035603C603D603A603260356034603D6035603460AE
:200DC0003D60356034603D60356034603D6035603C603D60356034603D60356034603D6090
:200DE00035603C603D603A603260356034603D60356034603D60356034603D60356034607E
:200E00003D6035603C603D6035603C603D6035603C603D6035603C603D603A60326035603C
:200E200034603D60356034603D6035603C603D60356034603D60356034603D6035603C6030
:200E40003D60356034603D6035603C603D603A603260356034603D60356034603D60356014
:200E60003C603D6035603C603D60356034603D6035603C603D60356034603D6035603C60E0
:200E80003D603A603260356034603D60356034603D60356034603D60356034603D603560DC
:200EA00034603D60356034603D60356034603D60356034603D603A603260356034603D60BD
:200EC000356034603D60356034603D60356034603D6035603C603D60356034603D60356097
:200EE00034603D6035603C603D603A603260356034603D60356034603D60356034603D6075
:200F0000356034603D60356034603D6035603C603D60356034603D60356034603D603A6051
:200F20003260356034603D60356034603D60356034603D6035603C603D60356034603D6039
:200F4000356034603D60356034603D60356034603D603A601960326035603C603D60356037
:200F60003C603D6035603C603D6035603C603D6035603C603D6035603C603D6035603460D7
:200F80003D60356034603D603A600160326035603C603D60356034603D60356034603D6007
:200FA000356034603D60356034603D60356034603D60356034603D60356034603D603A60B9
:200FC00019603260356034603D60356034603D6035603C603D6035603C603D6035603C60AD
:200FE0003D60356034603D6035603C603D60356034603D603A6001603260356034603D60A7
:20100000356034603D60356034603D60356034603D60356034603D6035603C603D60356055
:2010200034603D6035603C603D603A6019603260356034603D60356034603D6035603C604F
:201040003D6035603C603D60356034603D6035603C603D6035603C603D60356034603D60FD
:201060003A600160326035603C603D6035603C603D60356034603D60356034603D60356026
:201080003C603D60356034603D60356034603D60356034603D603A601960326035603460F7
:2010A0003D60356034603D6035603C603D60356034603D60356034603D60356034603D60AD
:2010C000356034603D6035603C603D603A60016019603260356034603D60356034603D60EA
:2010E00035603C603D60356034603D6035603C603D60356034603D60356034603D6035606D
:201100003C603D603A60016019603260356034603D60356034603D6035603C603D603560A1
:2011200034603D6035603C603D60356034603D6035603C603D60356034603D603A6001605B
:201140003260356034603D60356034603D60356034603D60356034603D60356034603D601F
:20116000356034603D60356034603D60356034603D603A603260356034603D603560346002
:201180003D60356034603D6035603C603D6035603C603D60356034603D6035603C603D60BC
:2011A000356034603D603A603260356034603D60356034603D60356034603D6035603460C2
:2011C0003D60356034603D60356034603D60356034603D60356034603D603A603260356099
:2011E00034603D6035603C603D6035603C603D60356034603D6035603C603D603560346065
:201200003D60356034603D6035603C603D603A6019603260356034603D60356034603D606C
:2012200035603C603D60356034603D6035603C603D60356034603D6035603C603D60356023
:201240003C603D603A6001603260356034603D60356034603D60356034603D60356034604D
:201260003D60356034603D60356034603D60356034603D60356034603D603A6032603560F8
:2012800034603D60356034603D60356034603D60356034603D60356034603D6035603460DC
:2012A0003D60356034603D6035603C603D603A603260356034603D60356034603D603560B0
:2012C00034603D60356034603D60356034603D60356034603D60356034603D60356034609C
:2012E0003D603A60326035603C603D60356034603D6035603C603D60356034603D60356068
:2013000034603D60356034603D60356034603D60356034603D603A6019603260356034607C
:201320003D60356034603D6035603C603D60356034603D6035603C603D6035603C603D601A
:20134000356034603D60356034603D603A6001600448009000205022A023014601F0B6FEE9
:2013600005B0F0BDFFFF0000F0B5F3B007930592799A0E92789E0025EA430992709013913A
:2013800012950878934C20184378D80623D513984A1CDB0606D5481C117861184B78521C1A
:2013A0000146F6E7139070A8B0470746401C01D100F0B2FD07F07BF803D570A8B04707469F
:2013C000F8E770A807F0EEF81298401E1290781C01D100F0A1FD0120069054A801466C3104
:2013E0000F9101460C3104910D30019014A8401C029010950B95119654A8702107F07AF8DA
:201400000998559070A813A912AA079B984701280AD0002801D100F087FD401C01D100F0A6
:201420007DFD0F98007878E01398461C139641782A2905D1549901220A435492861C139695
:201440000027F05D01463039092907D8F019401C1390F05D71A9C8557F1CF2E771A9002419
:20146000CC550978F519002904D071A806F0C8FB559028784C282ED068281ED06A2809D00D
:201480006C280FD0742809D07A282AD154980121090322E054980121C9021EE054980121C6
:2014A00049031AE0F019451C1395427854996C2A00D070E20122120209E0F019451C139543
:2014C00042785499682A00D067E20122520211435491851C05E05498802101435491F019C5
:2014E000451C691C139128780F9A10705B28119E13D108785E2806D154980221014354916E
:20150000A91C1391A8785D2800D0A8E0481C1390097854AA11730199ABE05B38132816D87A
:20152000012181402C48014211D070AF3846B0470546384629460E9A90471299681C04D1E1
:201540000029264D17D100F0E7FC244D13E0214C70A8B047074606F0AAFFF9D470A807F08C
:2015600021F81298411E1291781C1C4D03D1002901D100F0D1FC0A910F9803781946583970
:2015800020294ED8012049007944898849008F447101B902B9023901B902B902B902B9027A
:2015A000B9025300B902ED002700530053005300B9022700B902B902B902B90260032700FD
:2015C0002700B902B902ED00B9022700B902B9022700C046C0B9000001010800F4BD0000C8
:2015E0001D46559C70A8B047074605F045F914AE002C4BD0214614AE2D2F02D02B2F00D07E
:20160000D3E014A8077070A8119C0E46A0473146074605F031F9711E00D1ECE00C91029E98
:20162000C5E018464138062800D9B3E0012181407120014200D1ADE0559C70A8B047074632
:2016400014AB401C09D005F017F92B2F20D114AB002C22D12B2700242AE0099F28E00846EA
:20166000049906E0421C139200784B1C0870104619460278002A01D05D2AF3D10C70017823
:201680005D2900D0CDE6401C1390CAE60024B4E014AB002C0CD02D2F0AD114A8077070A891
:2016A000B0470746401C01D005F0E6F8641E029B384661381A2801D3384601E03846203865
:2016C00000210A1D0C2A25D06E58317888421146F7D10025AC423FD0705D00283BD039469E
:2016E00061391A2901D3394601E039462039814231D1384627461C46585570A811998847B1
:201700000146401C01D005F0B7F86D1C23463C460F46DFE70020002C089035D0302F33D1D6
:2017200030201093187070A8119EB0470746401C01D005F0A1F8109B5D1C601E0022012182
:201740000C91002800D12CE1394661391A2900D239E1394639E12C46E01E41424141083C4C
:201760006042604104460C435D19B7E1549901250846284049061F4675D4002800D0B7E228
:20178000059810C80590B4E21D460C90024606990D912FE1252B00D0B4E170A8B047252804
:2017A00000D00DE305F068F80BE10C91119C0020FB4A2B46115C994204D0401C0728F9D197
:2017C000002000E01018801A012811D1302F55D170A81090A0470446109821460E9A904740
:2017E0002B4620208443583C601E8441E00046E0EC49085C43E00024029E224620460699A7
:201800000D9162E0559D5498022101400D9114AC002D00D1D3E070A8B0470146471C00D10D
:20182000C1E0109525460C46C8B2002304990E7886420A4600D01A46491C002E1346F6D1EA
:201840000D9B59425941531E9A419142119E21462C46109D00D0A6E0611C207005F00CF8FB
:201860006D1E0C46D4E7002800D047E2059810C8059044E278230F980370B1E60A20109069
:2018800018466938C0B2102801D3002100E00121EB4CC4400C406F2B06D1302F0AD0002057
:2018A00006990D910C9A10E038463038414241410C42F4D03046761C077070A81199884748
:2018C00006F0E7FD00200D900698002C23D0002A21D000281FD020203946814358291AD193
:2018E0000C9270AD2846119CA047014628460D460E9A9047D34840194078800701D40C9A76
:2019000009E0377070A8A04706F0C3FD00D10DE3761C10201090069C002A23D010980828C8
:2019200003D1302F01DB382F0EDB10980A2803D1302F01DB3A2F07DB1098102812D1C14848
:20194000C019407880070DD5751C377070A81199144688472246074604F08EFF621E002490
:201960002E46D9E770A806F01DFE1298401E1290002131700D982040012809D112980A9A48
:201980004240F8431043119E00D1C9431091B9E00123119EBBE0402000E02020014354915A
:2019A0009FE5144623E070A810910E9A904712980A99814203D1002F00D1A3E009E200209C
:2019C00020700123A3E03946203958290ED15F7070A8B0470746401C01D004F04DFF109858
:2019E000851CA41E0020069A0C9001E0044606980D900898064603901092002C63D02B2FE8
:201A000036D02D2F34D02E2F2CD0452F01D0652F0AD10D9800283DD00C98002853D0002E5C
:201A200051D101260C9641E038463A380A21C94388420BD8002A46D08248C01940788007A4
:201A400004D4202038437028E6D03CE02B2F0FD02D2F0DD0702FDFD0502FDDD0652FD8D061
:201A60002E2F17D1089830432DD1012008901CE00D98002805D0681E0078202101436529A8
:201A800014D0002A1FD0681E00782021014370290CD018E0002E06D0384630380126092817
:201AA00011D8039602E001200C9000262F7070A8119988470746401C01D004F0DDFE6D1CDD
:201AC000641E109A99E70C9C601E84410399481E8141002E069800D008460440119E70A8B6
:201AE00006F060FD781C02D01299491E129100222A701299002800D13A460A98884200D05C
:201B000022461092109B581C012800D80FE20F98017808465B381D28109359D8800002A26C
:201B2000125818469746C046AB1B0000A91B0000A91B0000A91B0000A91B0000A91B000060
:201B4000EB1B0000A91B0000DF1E0000EB1B0000EB1B0000EB1B0000EB1B0000A91B0000E2
:201B6000EB1B0000A91B0000A91B0000A91B0000A91B0000531C0000EB1B0000EB1B0000D4
:201B8000A91B0000A91B0000DF1E0000A91B0000EB1B0000A91B0000A91B0000EB1B000068
:201BA000C1BA00003EBE000026E45499C80700D022E405980068490600D550E114A94A1C95
:201BC0000978431C0170002918461146F7D14FE108464138062801D9FFF70EFC012282402A
:201BE0007120024201D1FFF707FC14A80078002800D174E15498C20700D070E10B46613B00
:201C0000172B4DD800225B007B449B885B009F445100660166010201510051005100660144
:201C20000301660166016601660166011B00220166016601660166011B00660166011B00BF
:201C400081800000C0B90000782900D1C4E00822C3E0549AD107109001D0FFF7CDFBB84931
:201C60000A40129901235C03A2423AD0402A38D01C02A24200D103E15C02A24200D136E1AB
:201C8000DC02A24200D1FBE01B039A4229D0202A27D1059B04CB059311801090FFF7ACFBCC
:201CA0004139062900D91AE101228A4071210A4200D114E1C0210840802806D0402809D12D
:201CC00014A8002101F026F8FBE014A8002101F021F8F6E014A8002101F01CF804F088FF23
:201CE000F9E0059B04CB059311601090FFF784FB00245598002833D4054632E000245598D0
:201D0000002800D40546632B00D0054670A8B04706F0C6FB04D0894840184078C0060BD4B3
:201D2000481C022808D3002D06D0002C01D002C400E000246D1EE9E770A80E9A90471298D4
:201D4000401E12900A99814200D1EFE00123732F00D0DCE6002C00D1D9E600202060D6E60D
:201D60000125632B00D0054670A8B04706F098FB04D0724840184078C0060DD4481C022829
:201D80000AD3002D08D0002C03D0601C2170044600E000246D1EE7E770A80E9A904712986D
:201DA000401E12900A99814200D1BFE00123732F00D0ACE6002C00D1A9E600202070A6E65D
:201DC000014670A80E9A109190471098401C00D198E60020109095E61022752900D10A2229
:201DE0005749084001214B03984252D040285AD00B02984252D04B0298427FD0CB029842D7
:201E00004CD00903884244D020284CD114A8002102F0BAFF1AE00A224949084001214B035F
:201E2000984245D0402852D00B02984245D04B02984268D0CB0298423FD00903884237D03B
:201E4000202844D114A8002102F05EFE059A02CA0592088043E014A80021102225E014A97C
:201E60000A78002A02D0491C04C0F9E7002101600598001D05900B98401C0B90FFF7BCFAC4
:201E8000CA17059C08CC059419605A601090FFF7B3FA14A8002102F0D5FA1CE014A8002166
:201EA00002F0D0FA0DE014A8002102F06DFF12E014A8002101F088FD0DE014A8002101F03E
:201EC00083FD059B04CB05931060516007E014A8002102F019FE059A02CA05920860549837
:201EE000012181430B9808180B90FFF785FA059B04CB059311701090FFF77EFA14A80021B6
:201F000002F042FF03E014A8002102F0FDFD059A02CA05920870E2E709980DE00B99002944
:201F2000099809D0084607E00B9805E0099B0B98002800D00346184673B0F0BDC0B900003B
:201F4000603F0000F0B5FFB08EB0049306920646929802900025E84305908C913468204615
:201F600006F0BAFA21188B9503918C4200D3BBE00020879087A908738890059889902F4669
:201F8000049D2078002800D1AFE0252805D0641C34600699A8477F1CF3E78B97601C306019
:201FA00087AC2046314600F0A7F88CAA2046314600F0BFF8306801787A2925D0682919D0A5
:201FC0006A2908D06C290ED0742908D04C2922D1879980221BE087990122D20217E087995B
:201FE0000122520313E0427887996C2A64D10122120205E042788799682A60D101225202A1
:2020000011438791801C05E08799012212030A438792401C0178441C346087A8017373290D
:202020001FD06E2929D1879832490840202850D040283CD001214A03904238D04A029042FB
:2020400042D0CA02904205D00A0390422FD0090288422CD1F8178C9904C98C911760506006
:202060003BE087A80078400619D4009587A88CAA8BAB069900F01DF92FE007AD87A98CAA6D
:20208000284600F06DF9024628460699029B9847411C059D00D0C5198B9503991FE00095AE
:2020A00087A88CAA8BAB069900F09FF815E08C9802C88C900F6010E0401C402201E0401C06
:2020C000202211438791A5E78C9802C88C900F7003E08C9802C88C900F8003998B9D681C79
:2020E00000D042E7059F00E02F4638467FB00EB0F0BDC046603F000010B50A681378302B14
:202100000FD0232B07D02B2B09D02D2B05D0202B0ED1042306E0082304E0012302E00223EE
:2021200000E0102304681C430460521C0A60E5E710BDFEB516460D460446086802782A2A02
:2021400010D13068011D316000686060002805D54042606020680121014321602868471C89
:202160002F6017E00021303A092A08D84218531C2B60435C6F467B545278491CF3E76A460B
:202180000023535412784718002A03D0684605F037FD606038782E2826D1781C28607978EE
:2021A0002A2908D13068011D31600068A0602868401C2860FEBD00203039092908D8391829
:2021C0008A1C2A604A786B461A548978401CF3E76A46002111541078002804D0684605F05A
:2021E0000FFDA060FEBDA160FEBDF0B587B01E460C9F13681C1D14601D68002D3BD00491F7
:2022000006908468002C04D4284606F02BF9844203D3284606F026F9044606984068A0421F
:20222000039000DC204601463068019140180296306005940398A0420EDD06980078C007FA
:202240000AD1059801990E1A0024B44204DA20200499B847641CF8E70026049C069805990F
:202260008E420BDA2868010A19D12D1DC0B22146B847761CF2E70020B84718E00599039A45
:202280008A4214DD0078C00711D00198451A0024AC420CDA20200499B847641CF8E7002016
:2022A000C0430299086006F061F95821016007B0F0BDF0B585B00C4606460A9D1068011DD5
:2022C000116000680490002844D00393B768002F04D4049806F000F9874203D3049806F0DD
:2022E000FBF8074602967268BA42114600DC3946039B18680091401818600192BA420FDD84
:2023000002980078C0070BD10098C01B039000260398864204DA20202146A847761CF7E795
:202320000026BE4205DA0498805D2146A847761CF7E70198B84210DD02980078C0070CD024
:202340000098C61B0027B74207DA20202146A8477F1CF8E700202146A84705B0F0BDC04615
:20236000F0B589B001920F460446FF210846FA30251878680290002607960391FE3120223E
:202380002046009206F09AF87F20800006942118089104952E713D46387B0246613A172AA0
:2023A0002AD8012393402C46B44D2B42254608D007A908AA2846019B00F066F90026059685
:2023C000B3E071252B42254622D1022A14D1019B1868021D1A600068C2B2534253410593A6
:2023E000039AFC32069B9A18089208702868022188432860002698E001464539032907D33E
:20240000252860D0412803D058280596D0D08DE0019A1068C11D0720814308460830106009
:2024200005C9D1432F7B4900490D0BD17B3F944911400143049C2CD01920C1438F4234D3B8
:202440006E2033E0002A01D4114602E00121C9075140D60F002205923A46413A062A0BD973
:20246000613F062F61D8C0467F443F797F00BF440B5C5C5C3B3631007A4412795200974414
:2024800003545454332E290008AB2A4601F090F84BE0002311461A46059304F049FF192104
:2024A000C9438F4225D3662224E04E20E0708F4201D3612100E04121A170089460700020F7
:2024C0000590022631E0002006994870252008700120A1E008AB2A4601F066FB25E008AB2B
:2024E0002A4605F0BFF820E008AB2A4602F00AFE1BE04622E2708F4201D36E2200E04E2269
:20250000A2708F4201D3692100E0492161703F21C900069A51180891002803D02D202070BC
:20252000042602E02B2020700326287B012701466F39092904D801228A4052490A4201D11D
:2025400058286BD1049B029C04972946069F3D1908980C460978C90707D1191D091A62683F
:202560009142069F01DC691A4F1C411C0398430000263846324605F099FE089005990029D6
:2025800003D0411C0891067000E00146A94206D8481E691A491C202205F090FF2E702078C2
:2025A000C00605D40698391A202205F087FF2EE0069887422BD00698391A3026324605F0AA
:2025C0007DFF07984142414104980140012905D12078400702D43846069905E03878069AF7
:2025E000511C1070781C3E70227B412A0CD0582A05D0612A08D0782A01D0702A07D123788E
:202600001B0701D4612A02D142784A704670069805F062FF0599401809B0F0BD002E09D0E4
:20262000012E049B029C8FD10120079029680220084007E0079A296802200840002A09D095
:20264000049B029C08994A1E08922D220A704742474179E70028049B029C08D1480700D4FF
:2026600072E70898411E0891009901706CE70898411E08912B210170002765E708C19000EB
:20268000FFFF0F0043020000F8B514460F4605468068002804D4286810218843286001E064
:2026A0000120A860287B1026582808D0782806D0702804D06F2801D1082600E00A262846C9
:2026C000194600F055F8AA68002A09D102460A4306D12878000749D52B7B0020024612E017
:2026E0002B7B642B03D1642300290BD504E0692B08D1002906D5692301223A6000224042FF
:202700008A4100E00A4600941146324600F0B0F8A968884206DA401C21684A1E22603022E7
:202720000A70F5E7287B582803D0782801D070280FD1297809070CD5702800D17820216848
:202740004A1E226008702068411E216030210170287B6F280AD12878000707D52068417814
:20276000302903D0411E216030210170F8BDC04610B5037B702B05D10868021D0A600068BB
:2027800000226FE00068384A024001204403A24222D0402A20D00402A24230D04402A242F0
:2027A00046D0C402A2422AD00403A24214D0202A12D100221C46643C142C06D8A0402B4CCA
:2027C000204204D1212420423ED1582B49D10868031D0B60008845E000221C46643C142C63
:2027E00006D8A040214C204204D1212420422BD1582B36D10868031D0B60006832E01A4675
:20280000643A142A06D89040184A104206D12122104203D10020582B024623D10868C21D0C
:20282000072082431046083008601068526819E000221C46643C142C0CD8A0400B4C2042AA
:202840000AD12124204205D00868021D0A600068C21707E0582B04D10868031D0B60007835
:2028600000E01046114610BD603F000000081200FEB501920D460646582B01D0174800E0CD
:2028800015480090089802903046284305D1029A1068411E116030210170019C304628433E
:2028A00013D030462946224600F01AF807460D46224605F0D7FC301A0099085C029B1968B1
:2028C0004A1E1A6008703E46E8E70298006805F003FE401EFEBDC046F8BC00001ABD0000A9
:2028E00080B5102A06D0082A09D1C0084A078018C90880BD00090A078018090980BD00299E
:2029000004D1114605F03CF9002180BD002305F067FD80BDF0B58DB008931746079109903F
:20292000139C600825090B90400700D06D1C654309980B9941184E1E07990A19521E93B2ED
:20294000B2B202F083FD002D29D00C3CE0B2A10180080818C4B2052C21D801200C90A0401A
:202960002B2108421BD0203F681E032105F008F9491C002003290590019000D0019100910D
:2029800014980A9012980690F8B20390032D049407D2099F059E0098032800D0FEE00DB05A
:2029A000F0BD0198281A02900026099F05960AE00798401C0790099F0598C01C05900299C7
:2029C0008842049CE7D0032C0CD0012C06D0002C0DD10C2003994843CC490BE003980001CF
:2029E000C94907E0302003994843C64902E003988001C749081805994018057800240BE0A8
:202A000002F0BCFF761CF0B20B9905F0B9F8002926D0641C082C24D00C98A04028400A9935
:202A2000002913D0002809D0B8B2079989B202460B4602F00BFD089802F0A0FF7F1CB8B27B
:202A40000999401A0B998842E3D104E000280698D6D00898D4E70798401C0790099F00E093
:202A600000260598401C049900290CD0012906D003290DD13021039A5143A24A0BE0039996
:202A80000901A14A07E00C21039A51439F4A02E0039989019E4A51180818057800240BE00E
:202AA00002F06CFF761CF0B20B9905F069F8002926D0641C082C24D00C98A04028400A9935
:202AC000002913D0002809D0B8B2079989B202460B4602F0BBFC089802F050FF7F1CB8B27C
:202AE0000999401A0B998842E3D104E000280698D6D00898D4E70798401C0790099F00E0F3
:202B000000260598801C049900290CD0012906D003290DD13021039A51437A4A0BE00399DD
:202B20000901794A07E00C21039A5143774A02E003998901764A51180818057800240CE0E4
:202B400002F01CFF761CF0B20B9905F019F8002922D0641C082C00D12EE70C98A0402840E9
:202B60000A99002913D0002809D0B8B2079989B202460B4602F06AFC089802F0FFFE7F1C45
:202B8000B8B20999401A0B998842E2D110E700280698D5D00898D3E700260DE70020029026
:202BA0000EE00798401C0790099F0598801C05900299891C019802918142049C00D1EEE6AB
:202BC000002C0CD0012C06D0032C0DD13020039948434C490BE0039800014B4907E00C20A3
:202BE00003994843494902E0039880014849081805994018057800240BE002F0BFFE761CAA
:202C0000F0B20B9904F0BCFF002926D0641C082C24D00C98A04028400A99002913D0002835
:202C200009D0B8B2079989B202460B4602F00EFC089802F0A3FE7F1CB8B20999401A0B9909
:202C40008842E3D104E000280698D6D00898D4E70798401C0790099F00E0002602980C99CC
:202C6000084301998842049900D198E60598401C00290CD0012906D003290DD13021039AC3
:202C80005143204A0BE0039909011F4A07E00C21039A51431D4A02E0039989011C4A5118B9
:202CA0000818057800240CE002F068FE761CF0B20B9904F065FF002922D0641C082C00D13F
:202CC00073E70C98A04028400A99002913D0002809D0B8B2079989B202460B4602F0B6FB7D
:202CE000089802F04BFE7F1CB8B20999401A0B998842E2D155E700280698D5D00898D3E7D6
:202D0000002652E7809D000050AF000040B50000C0850000F0B58BB00A460346E24906460E
:202D20003778C8194078761CC006F9D42D2F01D02B2F01D1307801E0761E384605F002FC3F
:202D400001D3014601E0014620394E293FD0492959D1707805F0F6FB00D220384E284CD12A
:202D6000B07805F0EFFB00D22038462845D1002A01D0F01C1060F07805F0E4FB00D22038C1
:202D800049281FD1307905F0DDFB00D220384E2818D1707905F0D6FB00D22038492811D1A7
:202DA000B07905F0CFFB00D2203854280AD1F07905F0C8FB00D22038002A03D0592801D10F
:202DC000083616602D2F00D1C7E0BA49C6E0707805F0B8FB00D2203841280ED1B07805F0A3
:202DE000B1FB00D220384E2807D1B0490024002A00D127E1F01C106024E1002A00D01360A1
:202E0000002421461EE1AC490791002530280292049317D1707805F095FB00D220385828F4
:202E200010D1B078A04909184978890707D42E2808D1F0789C4908184078800702D5B61CCF
:202E40009E4807902C469C4B05F080FB411E884108909A4B059505F079FB411E88410390C9
:202E60000A9506952B46294632782E2A03D1002939D1012135E009911446303C0A2C01D38E
:202E8000002100E001210898084201D0284611E00398002827D0844881184978890722D58E
:202EA00028460A2C06D3114661391A2900D2203A1446373CE200824B99189D584C680A99BC
:202EC000059A079B03F032F82A46234601F0F5F905460A910999002902D00698401E0690C7
:202EE0000123761CC0E701202D2F099003D1C0070A9941400A91069FBC000398002820467B
:202F000000D13846002B00D181E00899002909D01346613B1A2B01D3134601E01346203B66
:202F2000452B09D00399002912D01346613B1A2B00D2203A502A0DD172782D2A019501D03B
:202F40002B2A0DD1B11C0491B4780023DB430BE004963DE0049627463AE05549002471E099
:202F6000711C0491002314462546303D092D25D800234D25AD00303C092C24D82D2A01D0A0
:202F80001E4600E05E423618F7177E40F61BAE42099F00D80027089939420AD10127B902B1
:202FA0008E4200D800270399394202D10A2159430B19049C611C64780491DCE70499C9189E
:202FC000491E049100232D2A019D00D15B421F18002428460A992246234604F09FF900287E
:202FE00015D10898002817D04D20800087421ADD05F0BCFA22210160002428460A992246A3
:20300000234604F095F9002816D12A4915E02C46029A049B0A9912E028460A993A4603F088
:2030200067F8044609E0274887420EDC05F09EFA22210160214600E01D49029A049B002A99
:2030400000D0136020460BB0F0BD002F15D41E4C029A049B002F0ED0F80709D00CCC284677
:203060000A99083C02F062FF049B029A05460A917F080834EEE72C46CCE728467C42124DAD
:20308000029A049B002C0CD0E10707D00CCD0A99083D02F0E7FA049B029A0A91640808351B
:2030A000F0E70446B6E7C046C0B900000000F87F0000F0FF0000F07F00002440000030402A
:2030C000C8BA0000CCFEFFFFA0BB0000F0B58FB01C4615460E46521E591E92B28BB20D9051
:2030E000314602F0B3F90894A64200D3A5E00D98C043F143089A89188CB2A34B1A4602949E
:203100006243520C032403946243891A491C069189B2032901D100220692149C4219032980
:203120000A95019200D185E091B2184605914843400C03994843101A401C81B2002704917D
:2031400003290E9709D00E9007E00C9EB61C099FBF1CB8B2079988426CD00C960D98A84200
:2031600009972BD2049803280D9E15D000270D9E204602F003FC0120384380B20E998DB27E
:20318000A84208D0204602F0F9FBB61CBF1CB8B2A842EDD100E0761C059802280A9D099FDA
:2031A0000CD3204602F0EAFB204602F0E7FB204602F0E4FBF61CB0B2A842F2D301213846BF
:2031C0000B91084380B2069989B2884230D007910D98A842B9D2049803280D9F16D0002502
:2031E0000D9F204602F0CAFB28460B99084380B20E998EB2B04208D0204602F0BFFBBF1CD9
:20320000AD1CA8B2B042ECD100E07F1C059802280A9D9AD3204602F0B1FB204602F0AEFB81
:20322000204602F0ABFBFF1CB8B2A842F2D38CE70C9E761C0298022801D20FB0F0BD019A0F
:2032400090B20B9050494143480C03994143501A401C0E9080B20990032808D100200E900F
:2032600005E00C9EF61CB0B208998842E5D20C960D98A842F5D2099803280D9E15D00027AE
:203280000D9E204602F07AFB0120384380B20E998DB2A84208D0204602F070FBB61CBF1CD0
:2032A000B8B2A842EDD100E0761C0B9802280A9D0CD3204602F062FB204602F05FFB20466A
:2032C00002F05CFBF61CB0B2A842F2D30D98A842C7D2099803280D9E15D000270D9E2046C6
:2032E00002F04CFB0120384380B20E998DB2A84208D0204602F042FBB61CBF1CB8B2A84289
:20330000EDD100E0761C0B9802280A9D0CD3204602F034FB204602F031FB204602F02EFB9E
:20332000F61CB0B2A842F2D30D98A84299D2099803280D9E15D000270D9E204602F01EFBD1
:203340000120384380B20E998DB2A84208D0204602F014FBB61CBF1CB8B2A842EDD100E0F1
:20336000761C0B9802280A9D00D27AE7204602F005FB204602F002FB204602F0FFFAF61C04
:20338000B0B2A842F2D36CE7ABAA0000F0B589B08049002708970797069705970497421E35
:2033A0000A2A65D87A44127952009744052C2C6205051818985F5F00774A53781B021478A2
:2033C0001D19D3781B0294781F1953791B0214791C19D3791B0292799E182346B2E06E4984
:2033E0004A7812020B78D518CA7812028B78D7184A7912020B79D418CA7912028B79D618AF
:203400002346097A9EE0644C627812022378D518E2781202A378D718627912022379D2182F
:203420000392E2791202A379D618227A002A00D187E00297019500231F4604ADEA547A1C44
:20344000D2B2A3181B7A002B79D004ADAB54BA1CD2B2A3181B7A002B71D004ADAB54FF1C93
:20346000FBB2E218127A002AE7D168E04A49097868E0494C6178090222788D18E178090277
:20348000A2788F186179090222798B18E1790902A2798E18217A0902627A8918A27A002AB9
:2034A00050D003930297019500231F4604ADEA547A1CD2B2A3189B7A002B40D004ADAB54DB
:2034C000BA1CD2B2A3189B7A002B38D004ADAB54FF1CFBB2E218927A002AE7D12FE02E4CA6
:2034E000627812022378D518E2781202A378D2180292627912022379D2180392E2791202D6
:20350000A379D618237A002B1AD001953A4604ADEB55531CDBB2E5182F7A002F0FD004AD87
:20352000EF54931CDBB2E5182F7A002F07D004ADEF54D21CD7B2E3191B7A002BE7D1019DE3
:20354000029F039B154CA07225806780A380E68021810020211804AA135CCB72002B0AD04A
:203560000B31121853784B70002B04D092788A70C01C002AEED10A4800900B3409490A4AD0
:203580000A4B204604F04EFD0348322104F0B2FF09B0F0BDE7030000381320209C13202024
:2035A00034142020E1BD00002C14202030142020F0B5A5B0049308920E46074600240A9453
:2035C0007E4D22462B4603F0C7FE002813D100247B4D3846314622462B4603F0B3FE0028FD
:2035E00009D1002238463146134603F097FE00283C46354607D10AAA2046294603F052FF2F
:203600000A98401E0A900899087B0BAE412801D06D4800E06B4809908868019030200390B4
:2036200030700022079220462946134603F080FE01210028029101D0C8074540771C204695
:203640002946079A134603F069FE00280DD124AA2046294603F026FF249801210A1A20467E
:20366000294602F045FD04460D462046294604F069F906463946059703F0C8FF06903046B2
:2036800004F0E8FC04F047FF04460D460198471C20D30598069946180022204629461346A2
:2036A00003F03CFE002848D1002220462946474B02F03CFC04460D4604F044F90999095C14
:2036C000771C317004F0C6FC04F025FF04460D463E46E1E70BA806994618002F16D07F1E9D
:2036E000002220462946394B02F020FC04460D4604F028F90999095C3246761C517004F0C9
:20370000A9FC04F008FF04460D46E6E73178099C204604F079FE001B08280EDB0196741E23
:20372000089D079F099E2178304604F06DFE801B0E2805DD2770641EF5E7089D079F04E052
:203740000999081840782070019E37700A98297B4129049C01D0702100E05021069E059FCE
:20376000224604F02AF8AA68501C04D1384604F0B3FE421EAA6038463146234604F03AFC63
:20378000A8680028029A02D128680007C20F38463146234603F0F8FC287B412801D0782060
:2037A00000E0582021684A1E226008702068411E21600399017025B0F0BDC0460000F07F5A
:2037C0000000F0FFF8BC00001ABD000000003040F0B58BB06748684C684F3978002902D059
:2037E000012907D12046009000205022A0230146FFF76CFC624E30686349884210D064498C
:2038000088420FD0644988420ED0654988420DD0654988420CD0654988420BD0654A0AE015
:20382000584A08E0594A06E05A4A04E05B4A02E05C4A00E05E4A397800294E4802D00129CC
:2038400008D120460023102100AC0BC40A20014604F052F83F2044013068006804F0B0F96A
:2038600002460B46544903A804F0DAFA534D29783878002905D1002803D100200C213D4ADF
:2038800006E000290CD101280AD100200C213A4A0092019102900A201E2103AA234608E04A
:2038A00000230C2033490091019002930A201E2103AA04F021F83068406804F081F902466D
:2038C0000B463F4903A804F0ABFA29783878012905D1002803D100200C21264A06E00129B1
:2038E0000CD101280AD100200C21234A0092019102900A20322103AA234608E000230C20AD
:203900001C490091019002930A20322103AA03F0F3FF3068806804F053F902460B462949B1
:2039200003A804F07DFA29783878022905D1002803D100200C210F4A06E002290CD1012866
:203940000AD100200C210C4A0092019102900A20462103AA234608E000230C200549009176
:20396000019002930A20462103AA03F0C5FF0BB0F0BDC046FFFF0000308400000F182020A5
:20398000E817202057BD0000FC16202064BD000034172020EABD00006C17202071BD00003E
:2039A0008C162020D8BD0000C416202054162020B2BD00000CBE000029BE0000091820204B
:2039C00037BE00001BBE0000F0B58FB004910546734E01902F78F3195B786D1CDB06F9D446
:2039E00070480021CC43631C0E93034608464B412D2F029403D02B2F0E946A4B02D12978B2
:203A0000059102E06D1E05970E94242A00DC1046102812D0002831D10A21059A302A1FD18D
:203A20006C7820222243782A1CD1A878059030184078800720D40C911BE010200C9005983B
:203A400030281CD16978302020220A43782A11D1A97805917218527892070BD5AD1C0EE0A2
:203A60000C910CE0302C02D3382C00D293E008200C903020059002E0AD1C10200C90039729
:203A800000270E981C4619460C9E32463B4604F0A7FC0990089132460B973B4604F0E2FBC0
:203AA0000E9A101A06908C4107940A2E0A9601D30A200A900B990D910E91059F3E46303E4F
:203AC0000A9A96420B9C1CD3354AD219507843063B460BD51E46373EF417002305930C9BB2
:203AE000F31A2346059A93413B460AD382063DD5573BDC1700221E460C9BF31A23469341E9
:203B000034D2099B0E981A1A089F3A468A4118D302465A400B467B40134304D1069A921BDE
:203B2000079AA2410DD300230C9A04F09BFB30180E904C410D9A511CAA1857780D912146B1
:203B4000BCE704F013FD222101600498002801D0019901600022029B581C12494A41039CD2
:203B60002D2C00D018462D2C11D111E0049A002A039C05D00D9E002E019B00D0AB191360DA
:203B80002D2C0E9803D1002240428A4100E00A4611460FB0F0BD05946D1C08206EE7C0464B
:203BA000C0B90000FFFFFF7FF0B5A3B003930F46044604929168002903D0002904D506212F
:203BC00000E001210498816007910AA83021089101700025204639462A462B4603F0A8FB40
:203BE00001210028059101D0C8074740624E20463946604A334603F0B9FB002809D000223C
:203C0000204639465E4B01F02DFD04460F466D1CEDE75A4E0022204639460992134603F069
:203C20007DFB002811D1002220463946334603F07FFB002809D0002220463946504B02F080
:203C400075F904460F466D1EE4E702950AA8451C2046394603F076FE0695294603F0D6FC3C
:203C600007998842019004DD481C0AA90A18085C1FE0C9430E180AA90D18681C0790204641
:203C8000394603F05FFE04F0E5F902460B462046394600F00DFB0022394B02F047F90446EB
:203CA0000F4603F04FFE079A30306870761C1546E3D3C0B23528039E049F029B099D0FD3BB
:203CC0001446501E0178491CCAB201703A2A03D330210170401EF5E70AA98842224640D026
:203CE0000198C41815700220C043844202DBB868844207DD601E397B891EC9B2324603F079
:203D00005CFD0124069804F0E7FB401E0599A0421ADB0028089A01D4069A125C1346303B6D
:203D20005D1EAB41C9431943C90705D13978090702D40025059905E031684B1E33600A70C0
:203D400001250021401EE2E73868082202402A43501E824106982146334603F015FA23B0F8
:203D6000F0BD501E002101700198C018441C0AA80690B8E70000C0FFFFFFDF410000F03FD2
:203D800000002440F0B570480068810C40220A40410C20230B409918430A102213405918F2
:203DA000800B082304461C4061180424054625406918022506462E40711801263040471875
:203DC000624800210170FFB27F1E7B2F00D9BAE07F00C0467F44BF887F00BF447B00870029
:203DE00095008900B400910099009B00B400B400B400A300B400B400A1008500B400B40077
:203E0000B400B400B400B400B4009300B400B400B400B400B400B400AA008D00B400B400B4
:203E2000B400B400B400B400B400B400B400B400B400B400B400B400B4008100B400B40075
:203E4000B400B400B400B400B4009D00B400B400B400B400B400B400B4009F00B400B4004E
:203E6000B400B400B400B400B400B400B400B400B400B400B400B400B400B400B400B40002
:203E8000B400B400B400B400B400A700B400B400B400A500B400B400B4007D00B400B40035
:203EA000B400B400B400B400B4008F00B400B400B400A900B400B400B4007F00B400B40027
:203EC000B4008B00B400B400B4008300B400B400B40097000F212CE01A212AE0052128E0A2
:203EE000182126E0214624E0172122E0112120E013211EE009211CE019211AE00D2118E0FA
:203F0000122116E0162114E0114612E0032110E029460EE015210CE006210AE01B2108E03C
:203F2000314606E0142104E0072102E00C2100E0194603204843064908184178054A1170EF
:203F4000807802490870F0BD80130A406B13202048BB00006A132020F0B585B0242803D1A4
:203F6000664901220A7046E0232840D161490978614B1A7891423AD1604A00261670604A2C
:203F80001670604A1670604D4919491E09785F4C22784906090E8A4227D103906878029000
:203FA000E878010613D0C4B2601E032103F0E8FD491C0329304600D0084600910190032C51
:203FC0003746334634D20098032801986AD100204E490880484908704B48642104F08AFA76
:203FE0000298FFF7D3F9039801E01E70268043490978012913D1242803D141490A78002A44
:2040000012D03D490B785A1C0A703F4AD0543F490B88181808803B490878002801D005B093
:20402000F0BD1078334A10700120087005B0F0BD0198201A049000263746334609E0531C78
:20404000D1B2334A545400270546F61C0498B042B9D02846AC1922792C2555403D436F1E5C
:204060002946B941002D04D05F1CDBB2284DEA5400E01F4663791A462C3A5542554129409E
:2040800001D03A4603E07A1CFDB2214F7B55A47923462C3B5D425D41012779400D42CED06F
:2040A0001346D1E77119491D194A06E06B1CECB216550027891C801E89D04C1E26782C250A
:2040C00075403D436F1E2C46BC41002D03D05D1CDBB2D65400E01D46012800D177E70E785E
:2040E00033462C3B5F425F413C42DFD001272B46E0E7C04608182020101820200D182020DF
:20410000131820200B182020A01520200218202038132020F0B58FB05C4D00950026142477
:204120007822282330462146FEF7D0FF10200095039001900296564A0A202146334603F0DB
:20414000DBFB012435460596A7000694049701E00025069C012D17D1059803286BD8C046A3
:20416000784400794000874401502E432C46322002F00CFC484800684B4903F01FF90028C0
:204180005FD004F0E1F854E0374600263046314601F0E2F92B4607AD28463E4922461C46AF
:2041A00003F03EFE394800900398019002960A2028212A4633463E46049F03F09DFBBE42ED
:2041C00043D0254642E02C462720C043282101F0C3F933480078012806D0324800682F4941
:2041E00003F0ECF8002822D004F0AEF8761C0AE02C46282002F0CAFB27480068274903F00D
:20420000DDF800281BD103201CE02C46322002F0BDFB2348007803280BD10020014601F0E6
:204220009BF97D20800003F00BFD04F08DF8022008E0012006E02C46BE42C2D105E004F06A
:2042400083F800200590BE42BBD1002502F0CEFA032805D002280FD00128069C06D079E7B9
:20426000002D00DD74E76D1C069C73E7042C01DC641C69E7012467E70C48012101700020FD
:20428000014601F069F90FB0F0BDC046FFFF000050BE000049BD0000B41720200000704144
:2042A0006B132020C0172020000020420E182020FCB40124E407634002E0FCB40124E4075C
:2042C00008B41D03ED08D60D354356025F007F0D06D12C00344300D0AEE001B0FCBC704777
:2042E000A408254307242402FF34A74205D10020190D090501B0FCBC7047002B03D50024CC
:20430000A61BAC4125000B03DB08C20D134342024800400D07D11C00144300D08CE00EBC8A
:204320001000F0BC704701246407234307242402FF34A04205D10020090D090501B0FCBC2B
:204340007047002903D50024A21A9C412300C11B08D51C002B002500140032002600002410
:20436000611A3800362925D502B4393949420C00203C03D22F008F40374301E03700A740CA
:20438000002F01D040210E4302BC20290BD500290ED04C42203420B4A5402C0020BC0D418C
:2043A000CE40361904E000292E000D4120390E4192196B411C0014433ED00024002B04D56F
:2043C000012400218A1A99410B00401E52005B41FBD50121890215000D400CD05218002776
:2043E0007B4101D3401C0BE00721C90115000D4001D189008A43072109028A4352005B417C
:20440000801C19DD07210902FF31884209D30EBC0020C90F0902FF31C900C91D0905F0BC9B
:204420007047190B00050143E40721431805120B104301B0FCBC70470021002001B0FCBCB2
:204440007047FEE7F0B58BB014460391574D06463378E9184978761CC906F9D4242C00DD3A
:20446000002401272B2B02D02D2B02D10027337800E0761E102C10D0002C2BD10A24302B8A
:2044800028D1737820211943782916D1B378E9184978890717D430231CE01024302B19D1E3
:2044A0007378302120221A43782A04D1B378EA18527892070AD40B460CE0302B01D3382B6D
:2044C00006D3302305E0B61C102403E0B61C01E0761C08240197029020460A2C069401D33D
:2044E0000A20069000200A9007460590099004961D46303D06988542059811D32B48C1182B
:2045000049784A0605D51D46373DA54201D2E81706E0890632D5573BA3422FD2D8171D46DA
:204520000790E6170A98089739462246334603F099FE22460F462D180798474128463946A6
:20454000334603F04DFF089A51400A9A5040084307D10998411C049E301843780A9509913D
:20456000C6E70020C44304F001F8222101600398002801D002990160214614E00398002828
:20458000019A0A9C394605D0099D002D029B00D073190360002063428841002A00D11C466C
:2045A000002A00D1014620460BB0F0BDC0B9000070B54C4B184618388522026001200402D8
:2045C00049490C601C46143C226044020C601C462C3C226080220A60444A141F86252560AE
:2045E00004030C601C46103C822525601E460C3E3F4C34601E46283E35601E46243E3460E8
:204600001E46083E35601D1F2C601546083D83262E60DE61651C9D618125956295645564AF
:2046200055631E46583E35601E464C3E3560156255621E46483E35602E4D1565166D166510
:204640001566166E16665566556E5566641E1D46603D2C601D465C3D2C60274C1C601D689C
:204660001D605C605D685D60D464D36CD3641463136B13631460136813601461136913619F
:20468000D460D368D3609460936893605460536853600A46303A194B13600B60184A13689B
:2046A00005210B431360174B1C6A032214431C621C6814431C608B235B04134C2361C00426
:2046C00020608F2040042064104803680904194301600F48016A120211430162016811430C
:2046E000016070BD64804240D0120A408C8042408200040081000E0081000C000400809056
:2047000090130A4028100A4090320A4090330A4028300A40F0B58FB04F4D009500261424FC
:204720007822282330462146FEF7D0FC10200095049001900296494A0A202146334603F0E4
:20474000DBF8012234460596354603E002283C46069A77D0012C069212D1022D51D0012D37
:2047600043D0002D12D116462D2002F00FF93D4800683E4902F022FE002858D1002504E093
:2047800000200146164600F0E7FE32469000002605998142374600D0274607AC20463449A2
:2047A0003B4603F03DFB2C4800900498019002960A2028212246334603F09EF802F016F8A7
:2047C000012806D00328C1D1002F08DC7C1C069AC0E7069A042A05DC521C3C46BAE70024C7
:2047E000069AB7E701223C46B4E71646282002F0CDF81B480078032817D103F0A5FD022536
:20480000C3E700253C21284600F0A6FE144800780226012806D113480068134902F0CEFD92
:20482000002808D13546069AB0E70125ADE703F08BFD0125A9E703F087FD0598401C0590D5
:20484000069AA3E70B48012101700020014600F083FE0FB0F0BDC046FFFF000044BE0000FE
:204860006B132020B417202000004041000034423BBD00000E182020F0B585B00446C260D4
:204880000161104601F0A0FC06464A4902F0A0FD07464949304601F09CFC0546002F00D13C
:2048A00035464649284602F075FD06464449284601F08FFC0746002E00D12F466761216847
:2048C000384601F04DFF029020626068656A0497394601F045FF294601F07BFC064660623E
:2048E000606B03F037FC07463046394602F070FD05460028384600D13046009003960121A3
:20490000C90701914F40394602F044FD0646401E8641002D009D05D12846394602F03AFDCD
:20492000002804D0002E00D12F4667620397A568A1690498009101F047FC0146284601F086
:204940000FFF0546A0620298039901F042FC0146284601F03EFC0546E062206B03F0FAFBB7
:2049600006462846314602F033FD07460028314600D12946029103950198464008463146A9
:2049800002F008FD0546401E8541002F049F05D10298314602F0FEFC002805D00298002D48
:2049A00000D10646E6620396A7610098E061039805B0F0BD000034430000B4C3000034C336
:2049C0000000B443F0B581B04049086800220A601746009203F072F93D4D294601F0C0FE90
:2049E0003C4E314601F0BCFE3B4901F08DFF3B4C20603B4908680F6003F060F9294601F0F4
:204A0000AFFE314601F0ACFE364901F07DFF36490860206803F0D4F807460D46334800683A
:204A200003F0CEF806460C46314A324B3846294601F07CFA32462346FFF73FFC02F0D8F8FF
:204A40002A4908602848006803F0BAF804460D462948006803F0B4F806460F462046294673
:204A6000234A244B01F062FA32463B46FFF725FC02F0BEF8204D28601C48006803F0A0F809
:204A80001E4B009C224601F051FA06460F46286803F096F82246194B01F048FA02460B4623
:204AA00030463946FFF709FC02F0A2F8144C20602068144902F08CFC002805D00098206026
:204AC0000A4908600C49086001B0F0BDEC172020560E49400000D0400000B0C2BC1720203B
:204AE000F01720200000B042C4172020B81720209A9999999999B93FC01720200000E03F8E
:204B0000B417202000401C46F0B585B016464D4B044625785A195278641CD206F9D44A4A3D
:204B20002D2D02D1521C029202E02B2D029201D1277802E0641E2F460292242E00DD002645
:204B4000102E0191009011D0002E27D10A26302F24D1677820223A43782A17D1A778D81932
:204B60004078800717D5A41C102617E01026302F14D16178302020220A43782A04D1A77855
:204B8000D9194978890708D4074607E0302F01D3382F54D30826302700E0A41C02983146CB
:204BA00002F0EEFF3146039041430A2E3046049601D30A220492029A511A0291002319468E
:204BC0003E46303E049A96420ED31E4AD2195278560603D53E46373E864205D3920620D515
:204BE000573F87423E461CD2039A91420AD802D1029A964206D8414371185A1CE3185F7818
:204C00001346DDE703F0B2FC222101600198002801D0009901602D2D0B4800D1401C05B017
:204C2000F0BD0198002804D0002B009A00D0E21802602D2D01D00846F1E74842EFE7641C10
:204C40000826ABE7C0B90000FFFFFF7FF0B587B01D461646302405900470002710461946CB
:204C60003A463B4602F064FB0028019402D00120C00745400D9804900C9803903F4C304675
:204C800029463D4A234602F071FB002809D00022304629463B4B00F0E5FC06460D467F1CBE
:204CA000EDE70598441C0022304629460692134602F034FB002811D1002230462946304B7E
:204CC00002F036FB002809D00022304629462D4B01F02CF906460D467F1EE4E70398C019A0
:204CE00003903046294602F02DFE214602F08EFC02942418C019049908600398471C012F5E
:204D00001ADB3046294602F01DFE03F0A3F902460B4630462946FFF7CBFA0022194B01F06D
:204D200005F906460D4602F00DFE3030611C20707F1E0C46E5D100E02146481E0278352A41
:204D40000DD3891E019C0A78521CD3B20A703A2B02D30C70491EF6E7059A914204D0069961
:204D60000170029807B0F0BD0699017004990868401C08600598F5E70000C0FFFFFFDF418D
:204D80000000F03F00002440F0B585B002910546474B01902878191849786D1CC906F9D4EE
:204DA000242A00DD002201242B2802D02D2802D10024287800E06D1E102A12D01146002A68
:204DC0000DD10A2230280AD1687820210143782917D1A87819184978890718D43020134671
:204DE0001AE01026302816D16878302120220243782A04D1A8781A18527892070AD4084634
:204E000009E0302801D338284FD330204EE0AD1C102301E0AD1C334600940A2B039301D32B
:204E20000A21039100273C4601463039039A91420ED31F4909184A78510603D501463739D8
:204E4000994205D3910623D55738984201461FD21846784304970F1838461E46194602F061
:204E60008FFE0499814205D1611C281940780C463346D9E70020C74303F078FB222101603A
:204E80000298002801D001990160384605B0F0BD0298002804D0002C019900D029190160D5
:204EA00000980028F1D17F42EFE76D1C0823B3E7C0B9000010B539480068C0B202286BD18C
:204EC0003749087800280DD036480268521C02600068354A1268904204D30020087001462C
:204EE00000F03AFB31480178002911D030490A88521C93B20A809A087D2A09D300220A8078
:204F00000270012080042B4908602B48042101602A480188491C8AB201800A2A31D300212F
:204F20000180FEF72FFF26480078002812D0254804682548006803F00DF90146204602F097
:204F400033FA002802D103F069F903E01F48006802F0B2F81E480078002812D019480468D1
:204F60001948006803F0F6F80146204602F01CFA002802D103F064F903E01648006801F0ED
:204F800005FD15480188491C8AB20180642A03D300210180FFF716FD10BDC046203086400F
:204FA00014182020F8172020F417202007182020FC172020A0320A40A0120A4000182020C9
:204FC00004182020B4172020AC172020B017202005182020D0172020FE1720208EB0424EB9
:204FE00002F098FB0120059080044049086002F081FF02F05BFC03F043F801F06DFEFBF7CA
:205000005FF80096002550220492A023039328462946FEF75BF81024009601940295344A84
:205020000A26142130462B4602F066FC314906AF3846059A02F0F4FE2B48009028462946C0
:20504000049A039BFEF742F82748039400A931C11E2130463A462B4602F04EFC274C18E0F7
:20506000821906AD284602F0DBFE1F4800905022A02338463946FEF729F81B4800900398DC
:20508000019002970A201E212A463B4602F034FC3546A80018490818049008E005200027FE
:2050A00027702818062102F06BFDA94210D101F09DFB0128F2D0022803D00328F7D10598CB
:2050C000EDE720780028F2D1049800688047EEE70E46022901D3F84300E00120022E0549CC
:2050E000BED30749BCE7C046FFFF000090320A4022BE0000B4B90000A0BC00000E1820200D
:205100007EBD0000F0B5A1B0049305469068002801D5062090600290039200243D4F28462B
:20512000224606913B4602F017F906990028264614D10026384F284632463B4602F002F9D4
:20514000069900280AD1002228460592134602F0E5F8069B00282E461F4622D12F4D03F05A
:20516000E7F902F0E5F8002809D00022304639462B4B00F0DBFE06460F46641EEFE7284DBB
:2051800003F0D6F902F0E8F8002807D003F0D0F900F068FA06460F46641CF1E735463B4679
:2051A000059407A802990091019008A82A46FFF74DFD0446079D022D0DD1059D6D1C2046FE
:2051C00003F08AF92018401E0021017028460125049E039F02E0049E039F0598397B32466A
:2051E00002F0EBFABA6820462946334602F002FF204603F071F9854203D138680007C20F9F
:2052000000E0012220462946334601F0BDFF21B0F0BDC0460000F07F0000F0FF0000F03F7F
:2052200000002440FEB5002905D03D4C0027072C03D83E4603E000276FE02646083E8E423C
:205240006BD30197431E08221842074600D01746072800D81746C81D029007253148006831
:2052600080473148017800290BD10121092C01D2002203E02D4A0023936016602C4B1A604D
:2052800001700298A8430290781E7942284C2568002D34D02C46083406190E40B44210D012
:2052A0002A4610323346083B9A4201D9F619F9E72A6801239A43A218029BF3189A42E6D351
:2052C00006E02A6801239A43029B9A42DFDB2646284603F055F8A64216D0301B083829681E
:2052E0000122D3431940091A286018402F1811430839B9600837284602F040FF05E00D480C
:2053000000688047019F08E02F463846029901F0A1FF08480068804708373846FEBDC046BA
:2053200000100000E01720200C1820200000202028142020E4172020F0B58BB039480090DA
:20534000054600245022A02320462146FDF7BEFE10270095019702940A2528462946324AAA
:20536000234602F0C9FA1E2001F05EF92F48C06802F026FC02460B4603AE30462C4902F0AF
:205380004FFD2848009001970294462128463246234602F0B1FA2748006802F011FC024622
:2053A0000B4603AE3046244902F03AFD1D480090019702945A2128463246234602F09CFA6A
:2053C0001E48006802F0FCFB02460B4630461C4902F026FD13480090019702946E21284677
:2053E0003246234602F088FA1648006802F0E8FB02460B463046124902F012FD0948009071
:2054000001970294822128463246234602F074FA01F0ECF9022891D10B48012101700BB009
:20542000F0BDC046FFFF000030BE000010142020C6BD0000B417202014BE0000B8172020FA
:2054400004BE0000C01720200E182020F0B585B002930092019101210A063D4B1A611346EC
:205460000392CA053B4E32600492CF0737600D0735603446103C276037603560276037606A
:20548000256027603760356027603760256027603760356027603760256027603760356028
:2054A000276022602A490B601A3080B200F066FA00981A3080B200F061FA2548039901616F
:2054C000049A326037603560276037603560276037602560276037603560276037602560C4
:2054E0002760376035602760376025602760376025602760226001600198401C80B200F032
:205500003DFA0298401C80B200F038FA039810490861049A3260376035602760376035609E
:20552000276037602560276037603560276037602560276037602560276037603560276095
:205540003760356027602260086005B0F0BDC04690320A40A0120A40F0B581B00F460646C7
:205560006320C543642E02DD6426374805E06420C043864203DC35482E4602F085FE344C2D
:20558000652F04DB364802F07FFE64270AE06420C043874204DC2F4802F076FE2F4612E0C2
:2055A000002F10D4002120460A4602F053FF5020784302F04FFD284A284B00F0B7FC02F0DA
:2055C000BDFA014611E028461430784302F042FD214A224B00F0AAFC02F0B0FA01460027C6
:2055E00020463A4602F036FF39460122204602F031FF002E10D45020704302F02BFD164AC5
:20560000164B00F093FC02F099FA01460222204602F020FF002110E000210222204602F095
:2056200019FF14357543284602F014FD0A4A0B4B00F07CFC02F082FA01460322204602F09C
:2056400009FF01B0F0BDC0465BBC00000FBC000000008640E8BB00009A9999999999E93FD4
:2056600035BC0000FCB40C005C40E40FE40710B41D032D0B56006D415F007F0D73D0012490
:205680006405254307242402FF34A74261D00B031B0B42005B414800400D64D00124640532
:2056A000234307242402FF34A04252D0C01B002100273624AB4200D1B24204D37F414941AC
:2056C000921BAB4101E07F414941641E06D0002B01D1002A02D052005B41EBE7202C07D2D0
:2056E000162C0AD33900A7402026361BF1400BE0203C3900A140002706E0A1402026361BBD
:205700003D00F5402943A74001246405214202D17F004941401E00247F1C61410124A4056A
:20572000214202D0401CA14301E06408A14303242402FF34001916DD2419A04209D8CC0764
:205740004908000501437808204310BC2143FCBC704702BC0020C90F0902FF21C900C91D9D
:205760000905FCBC70470021002001B0FCBC7047F0B585B00446C2600161104600F024FD3C
:2057800006466061216800F0EBFF029020626068656A0496314600F0E3FF294600F019FD96
:2057A00006466062606B02F0D5FC07463046394601F00EFE05460028384600D13046009046
:2057C00003960121C90701914F40394601F0E2FD0646401E8641002D009D05D128463946D0
:2057E00001F0D8FD002804D0002E00D12F4667620397A568A1690498009100F0E5FC0146B4
:20580000284600F0ADFF0546A0620298039900F0E0FC0146284600F0DCFC0546E062206B9A
:2058200002F098FC06462846314601F0D1FD07460028314600D1294602910395019846407C
:205840000846314601F0A6FD0546401E8541002F029F05D13846314601F09CFD002804D05F
:20586000002D00D13E46E66203960498A0610098E061039805B0F0BDF0B5394A8218394B0C
:20588000C0183A4D4C790B79002C22D0466F202B02D00524E70100E0354F2E40002B00D191
:2058A00088273E434667846F2C403C438467446B2D4E34404463846B3440846300244465E6
:2058C000846554688F26F643344054609468344094600C688979202B09D006467036002BF2
:2058E00015D1641E4460C46E2C40882715E0641E4460C46E2C401E4E3443C466046F2C40AA
:20590000344304671B4D01246707064607E00527FF0164084460C46E2C403C43C466346858
:205920002C403C433460C46A0F4D2C40C462046B2C4004630024C4640465C46F8F25ED43BE
:205940002C40C46714682C401460194302680A4B1340BD220A40D118891C0160F0BDC0461B
:2059600084180000041800008888FDFF24493E0001040000FFFFFFCF4000FFCFF0B507B27B
:20598000060A3E490B4610330125EA050A61EC070C61002F1F4600DA0F462D073D600C60FC
:2059A0000C6177061F4600D50F463D600C600C61B7061F4600D50F463D600C600C61F70639
:2059C0001F4600D50F463D600C600C6137071F4600D50F463D600C600C6177071F4600D5C7
:2059E0000F463D600C600C61B7071F4600D50F463D600C600C61F6071E4600D00E463560FF
:205A00000C600A6046B20A610C61002E1E4600DA0E4635600C600C6146061E4600D50E46D9
:205A200035600C600C6186061E4600D50E4635600C600C61C6061E4600D50E4635600C6017
:205A40000C6106071E4600D50E4635600C600C6146071E4600D50E4635600C600C618607FC
:205A60001E4600D50E4635600C600C61C00700D00B461D600C600A60F0BDC04690120A4051
:205A8000B0B53A4A80184A6842600A78222A56D8930001A4E3589F46355B00003F5B0000B3
:205AA000355B00003F5B00003F5B00003F5B00003F5B00003F5B00003F5B00003F5B000020
:205AC0003F5B00003F5B00003F5B00003F5B00003F5B00003F5B0000255B00003F5B000010
:205AE000255B00003F5B00003F5B00003F5B00003F5B00003F5B00003F5B00003F5B0000F0
:205B00003F5B00003F5B00003F5B00003F5B00003F5B00003F5B0000255B00003F5B0000CF
:205B2000255B0000036803242407A343012464071B1903E0036803242407A34303600B6921
:205B4000C360CB68C46A0A4D25400A4C1C402B19C3620368084C1C400460097A114302682A
:205B60003F239A43194051180160B0BD041800008888FDFF777702007F00FFFFF0B585B0E7
:205B80000F4606460024E543384800688047384601F02DFB002863D0B8680397F968325DCD
:205BA000641C002AFBD10095039D6A69072302931A40671E042A01970CD10024002F47D0BC
:205BC000286831193A4602F001FB002842D404193F1AF3E70B1A3C46002C39D09C422746C8
:205BE00000D31F466969029A11400229049311D1002B07D00021725C0A2A06D0491C8F42D9
:205C0000F9D107E000252F4605E0721802D04F1C012500E0002531463A4602F0ABFC039936
:205C20008868C0198860F619E41B002D0D46049B01D1DB1BD0D1284601F096FD002809D129
:205C4000A868E9680B1A696920220A436A61C3E7019D05E068690121890201436961009D3C
:205C6000034800688047284605B0F0BDE0172020E4172020F0B581B0FDF7AAFD354D364CF3
:205C800006E001F015FFFDF7A3FDC82001F0D8FF00F0ACFD0128F4D003284ED1297800293B
:205CA0004BD1064601272F7002F090FBFDF790FD07E0012000F0C8F8FDF78AFDC82001F0AB
:205CC000BFFF00F093FD012806D0022802D003280AD127E0384600E0002000F0B5F8FDF76F
:205CE00077FDC82001F0ACFF00F080FD012806D0022802D003280AD114E0012000E0002029
:205D000000F0A2F8FDF764FDC82001F099FF00F06DFD012804D00228CBD00328D1D101E069
:205D20000020C7E72078C01E414241412970FDF74FFDC82002F0EAFB30460228A8D1032046
:205D400020700648012101707D20C00001F078FF01B0F0BD0F182020091820200E18202081
:205D6000F8B5002867D00446334800688047083C324E002231461546306801270246BA4366
:205D8000B6180836A1420A46F4D32D4B2B4A072B01D99A18083A964200D90026A14247D13E
:205DA000C00745D0002D0AD029683940284600D00020002E06D100292AD100260BE0002E30
:205DC00026D000203178C907314600D0002100280BD00E460546284602F0D2FA002E08D1F7
:205DE00002F050FB801808300FE0002500292F460ED0304602F0C4FA002F0DD002F042FBA5
:205E000033680B408018C018103028602C460CE020680121884307E020680121C9430840AC
:205E200032680A40801808302060204602F0A6F9044800688047F8BDE01720200000202090
:205E400000100000E4172020F0B581B02D490F683C6879680091BE683F232D498F420BD074
:205E60002C4A19062C4B9F420AD02D4B9F420AD02A4A7F23DB0508E0234A24491B0604E06B
:205E800001239B0701E027490B46274D2D78022D14D0012D09D0002D28D1012822D00028FE
:205EA00024D1204600F095F91FE001280FD000281CD10098114600F08CF918E001280BD08D
:205EC000002813D13046194600F083F908E00098114600F079F90AE03046194600F074F920
:205EE000064603E0204600F06FF9044600983C607860BE60002038627862B862F86201B088
:205F0000F0BDC046E81720200AD7A33BCDCC4C3D541620206F12833A6C172020CDCCCC3D61
:205F2000C41620200AD7233C09182020FCB50C005C40E40FE40710B4DD02540D2543D6022B
:205F40005F007F0D60D00124E407254307242402FF34A74250D0CB02440D2343C202480091
:205F6000400D51D00124E407234307242402FF34A04241D0C01901B41800290001F016FFF1
:205F80000F0001B41800310001F010FF03000C001000310001F00AFF06001000290001F07A
:205FA00005FF05007618002202BC01BC55415141A419554151418024A4005B195141FF183B
:205FC000514100D564003F19514102D47F00494100E0401C03242402FF34001B14DD241928
:205FE000A04209D80305F80A4C0520434900090B194310BC2143FCBD0020FF21C900C91D8F
:20600000090510BC2143FCBD0021002001B0FCBDF0B585B01E4614460391054600200490B3
:20602000C7432F48006880472868401C4BD00294042C324601D0002A45D001972B1D6868AB
:206040006F6900280ED0390705D5401E0093FFF787FE009B3246082087430498186058600B
:206060009860D8600120029C012C00D8044607218F4327436F61FF2A164600D906020398AD
:20608000002804D0012A02D0401C18600CE0761C30461C4602F034FA2060002819D0401CD0
:2060A000686008210F436F618119491EA860E96028610C48006880470948006880470A489D
:2060C0000A490160049F074800688047384605B0F0BD0120800207436F61019FF3E7C046CE
:2060E000E0172020E4172020A4172020597E0000F8B515462A4E0A0D771C3A40294B9A4268
:2061000013D00C46002A18D10122D2079443044344D00022244BFFF709FF0C4623498D42ED
:2061200008DC234A234B214636E002460B46FEF7C4F8F8BD220D3A40363A5119B1420ADDC7
:2061400002F014FA222101600120C00704401D4821180020F8BD012904DB174A1440090530
:206160002143F8BD3522D24391420CDC02F0FEF92221016012488542E6DA0120C007044045
:2061800000202146F8BD0C4A144009051B225205891821430022094BFFF7C8FEF8BDC04685
:2061A000FE070000FF07000000005043AF3CFFFF59F3F8C21F6EA501FFFF0F800000903CC6
:2061C00051C300000000F07FFCB40127FF07794002E0FCB40127FF070C024D002D0E03D17B
:2061E000002C52D1FCBC70473C43FF2D50D0A408002900D56442020243001B0E04D1002A57
:2062000043D10800FCBC70473A43FF2B41D09208002800D552425E1B04D5170022003C0049
:2062200076422B00192E06D527003741D2191C27F71B7F42BC40002A27D002D55242012709
:2062400000E00027013B5200FCD51500802635400FD01500202635402C43803208D21500E9
:20626000402635402C4304D101263602B24300E05B1C5200023308DDFF2B0BD2500ADB05A7
:206280001843FF073843FCBC70470020FCBC70470800C70FFF07FF20C0053843FCBC704772
:2062A000F0B581B02D492E4C204602F03FF82D492046FFF7E1FA2C4801682C4A0A400260DD
:2062C00000250095204629462A462B4602F066F8204629462A4602F01BF8204629462A466F
:2062E00002F0B8F801260096204629462A462B4602F054F820462946324602F009F82046A5
:206300002946324602F0A6F802270097204629462A462B4602F042F8204629463A4601F01E
:20632000F7FF204629463A4602F094F803270097204629462A462B4602F030F8204629462E
:206340003A4601F0E5FF204629463A4602F082F8074886600F21016001B0F0BD56BE0000EF
:2063600000008640FCBD0000041886407F00FFFF00118640F0B581B0294C206840054DD52E
:2063800001218D0227480068C3B2274E3278552B08D1002A06D13170244801702448552127
:2063A00001703AE0002A38D020490B785A1CD7B20A701F49C8540B2F2AD14878FE230340DE
:2063C000522B25D10A784B789A188B789A18CB789A180B799A184B799A188B799A18CB7903
:2063E0009A180B7A9A184B7A9A18D2B2897A8A420AD1532805D0522806D10D4800F042FBEC
:2064000002E00B4801F052FE0020307007480278D0B2202801D300203070256101B0F0BD3B
:2064200038105040241150400A18202012182020F0132020F0B50020C143234A234D24489E
:20644000012410380668104610380368F00708D02A68204F386892070A4600D5224680182A
:2064600038606402B00709D528681A4D2E68C00701D0084600E00120301828601F46274079
:20648000154D0126D80508D52A68144B186822420A4600D0324680181860002F08D0300203
:2064A0002A680E4B1C68024200D1012160181860074A1068032108431060034A10680902CE
:2064C00001431160F0BDC04648300A4080130A4048100A40F017202080330A40EC1720208C
:2064E000F0B585B0002948D00E4604464F1E0321384601F045FB481C032801D0039001E0CF
:20650000002103911E4D032803D13746032E24D233E0019702960398471E0026A019049002
:20652000A15D284601F04EFDB7420FD004984178284601F047FDB61C0398B042EED102982B
:20654000871BA4190646032E07D216E00198871B0498441C029E032E0FD32178284601F0AE
:2065600031FD6178284601F02DFDFF1EA178284601F028FDE41C002FEFD105B0F0BDC0467A
:2065800000005040F0B58B4200D1824204D90B0002000021002040E0002B00D1002A0CD116
:2065A0000B00020000210020002B00D1002A01D0C943C04300F0D3F82FE01C0015000B0081
:2065C00002000CB4002126002F00FF19764102D2491C4029F9D100201E001700FF19764124
:2065E00002D2401C4028F9D10E1A21002800320001F07EFE0C0005000CBC00200021A3422A
:2066000000D1AA4201D3521BA341404149416D08E7073D436408761EF1D5059F002F01D040
:206620003A607B60F0BD7047F0B593B0054600241D4802571D490BA801F0F2FB1C48007899
:20664000032816D87844007940008744010D060A03A80471194803900DE01648801D039034
:2066600009E01448039006E003A804711248039001E003A804700294102701971048009002
:20668000A9B20A260BAA3046234601F035F914350B48009001970294A9B203AA304623467B
:2066A00001F02AF913B0F0BD6A132020BCBD00006B1320204C5F54006C696E656E6F6E650B
:2066C000FFFF0000002A49D084468B071CD1830722D1102A08D370B4103A78C978C0103A6D
:2066E000FBD270BC103238D0042A2CD3082A05D30C2A01D308C908C008C908C008C908C04B
:2067000092072AD0920F22E00B780370491C401C521E22D08B07F7D1C30714D18307D8D0EF
:20672000121F12D308C903801B0C4380001D121FF8D20AE008C903701B0A43701B0A8370CF
:206740001B0AC370001D121FF4D2121D05D00B780370491C401C521EF9D1604670477047C4
:20676000FCB40127FF0706004E4001D4002600E03E00020243001B0E30D03A43FF2B30D077
:206780000C024D002D0E29D03C43FF2D29D05B194240504042404C4061404C4000B501F05F
:2067A00005FB20BCAE464240504042404C4061404C4025001400002C01D46400013B80342E
:2067C00001D3013364087E3B08DDFF2B09D2BC43200ADB0518433043FCBC70470020FCBC84
:2067E0007047FF20C0053043FCBC704770B5214C01252068800111D46E060A2001F020FACD
:20680000206830420AD12068304205D12068304202D120683042F6D0284670BD20684001E2
:2068200011D4AE060A2001F00BFA206830420AD12168022031421BD12168314218D1216852
:206840003142F5D014E021680020090110D4ED060A210646084601F0F3F930462168294276
:2068600006D121680320294202D121682942F5D070BDC04680130A401298401C129070472F
:20688000024670B50A4392072AD11E4DEE0104C808C9541B9443344017D0D0B2D9B2401AAB
:2068A0002106014310D190B299B2401A210401430AD110021902000A090A401A2102014356
:2068C00002D1100E190E401A70BD9A42DFD010BA19BA884201D9012070BD0020C04370BDAF
:2068E00002780B7801300131002A09D09A4207D102780B7801300131002A01D09A42EFD08B
:20690000D01A70BD01010101FCB40127FF0706004E40F60FF607020243001B0E2DD03A43FE
:20692000FF2B2DD00C024D002D0E26D03C43FF2D26D05B1B0020202164085208A242404101
