:2000000000802020F9A80000876500008765000000000000000000000000000000000000A7
:200020000000000000000000000000008765000000000000000000008765000087650000FC
:2000400087650000AD85000087650000A9A800008765000087650000876500008765000095
:20006000000000008765000087650000000000000000000029A400008765000001A400004A
:20008000876500008765000087650000956E000087650000876500000000000000000000C1
:2000A0008765000087650000000000000000000087650000000000008765000087650000A4
:2000C000F0B59DB0554D38201C9034201B901CA81BA909F0E9F800263046314607F098F98C
:2000E0000AF0B0FA10270095019702964C4A142430462146334609F06DFD00950197029614
:20010000282530462946464A334609F063FD4348009001970296434A30462146334609F024
:2001200059FD3E4800901997019702963E4A304629461196334609F04DFD08F013FC022872
:2001400008D10020014607F063F93848012101701DB0F0BD01211091354D364F11991A9160
:20016000189112910B91079113910F910891149117910C91099115910E4606910A910D91D4
:200180000E913BE000242046214607F041F9234F00973E46199F0197029414252046294602
:2001A0001F4A234609F016FD0096019702942826204631461A4A234609F00CFD17480090B4
:2001C0000197029420462946164A234609F002FD124800900197174F029420463146164AA0
:2001E000234609F0F7FC0AF09DF807260A2009F095FE08F0B7FB02280D4DA2D0F1B20729C5
:20020000F4D849007944898849008F441700C5007000FD015502D40017001700FFFF00003E
:200220002EE10000BEE10000C8E100000E18202000003443000034C310E200000024054632
:200240002046214607F0E4F8032DD2D1D948C0681A90D94805782046214607F0D9F8D748E6
:200260000460D7480460D7480460D74804600AF0E9F9002D00D115E3D4480AF077FAD44F15
:2002800000973E46199F01970294142520462946D04A234609F09EFC009601970294282627
:2002A00020463146CB4A234609F094FCC84800900197029420462946C74A234609F08AFCBE
:2002C000C34800900197029420463146C34A234609F080FC02260D940A9406941794149439
:2002E0001394109807900B941294189411E3BC4D2868B1490978002901D100F0A3FC00266F
:20030000B848805709F048FE0446B7480D96805709F042FE0246AD48214607F085F9FF2192
:20032000890508F0D9FA044609F0AEFE01463120C2439142084600DC10463222322800DBFC
:200340001046511ACA179143642900DB6421323007F05EF8A5480078012819D12046179EF8
:20036000314607F0EDFFA24C214608F0B5FA314607F0EBFF17908F488068149E314607F049
:20038000DFFF214608F0A8FA314607F0DEFF149028680A9000F075FC18981AAFC2CF05F005
:2003A00061FE05460024214609F004F9002800D1D8E23F20D7E27F48C0681A9907F0C0FFEF
:2003C0000446294609F000F900288A4E1DD02046314607F0BAFF0446294609F0F5F8002831
:2003E00013D02046314607F0B0FF0446294609F0EBF8002809D02046314607F0A6FF04463E
:20040000294609F0E1F80028E1D12046394609F0C7F800283E46784F1DD02046394607F0E8
:2004200094FF0446314609F0BBF8002813D02046394607F08AFF0446314609F0B1F80028C1
:2004400009D02046394607F080FF0446314609F0A7F80028E1D100201690214607F070FFA2
:200460000446294609F0B0F80028624F1DD02046394607F06AFF0446294609F0A5F80028A0
:2004800013D02046394607F060FF0446294609F09BF8002809D02046394607F056FF04467D
:2004A000294609F091F80028E1D12046314609F077F80028504F1DD02046394607F045FF58
:2004C0000446314609F06CF8002813D02046394607F03BFF0446314609F062F8002809D0C8
:2004E0002046394607F031FF0446314609F058F80028E1D12046169909F048F80121C907CC
:200500000028059100D04C4037463A4E20463B4909F046F8002812D02648846800212046B0
:20052000169109F033F8002801D00598444041200106204609F034F8002800D0DFE30F9882
:2005400080084B2800D2D6E200242046214606F05FFF1F4F00973E46199F01970294142529
:20056000204629461B4A234609F034FB009601970294282620463146164A234609F02AFBDA
:20058000134800900197029420462946124A234609F020FB0E4800900197194F02942046B2
:2005A0003146184A234609F015FB09F0BBFE072600F034FE10142020C6132020EC1720202F
:2005C000F0172020BC172020C41720206C172020FFFF00002EE10000BEE10000CDE2000088
:2005E000B41720206A132020061820206B132020CDCCCC3D0000B4C30000B4430000404087
:20060000000034C396E10000C3488168149807F097FEC24908F060F90446C14908F0D4FFC5
:2006200005462046BF4E314608F0B0FF002800D12646002DBA4C00D13446002620463146F8
:2006400008F0B8FFBF210D063F210F060028294600D03946204607F078FE09F015FD044675
:200660001798314608F0A6FF002800D03D461798294607F06AFE09F007FD0146001B3230FE
:20068000C217904364226428A74D189E00DB1046611A3231CB1799436429A44F00DB114673
:2006A00006F0B6FE28688321C90508F083FF002800D0F3E1032699E59D48007800240028F8
:2006C00000D1EDE29B48005709F066FC05469A48005709F061FC02469848294606F0A4FFDB
:2006E000FF21890508F0F8F809F0CEFC01463120C2439142084600DC1046322232288A4E2B
:2007000000DB1046511ACA179143642900DB6421323006F07DFE30680125A90708F04AFF19
:20072000002800D1B5E005957B48C0681A9907F007FE0646824D294608F046FF0028814F38
:200740001DD03046394607F000FE0646294608F03BFF002813D03046394607F0F6FD06469F
:20076000294608F031FF002809D03046394607F0ECFD0646294608F027FF0028E1D11694AF
:2007800030466A4F394608F00BFF00286E4C1DD03046214607F0D9FD0646394608F000FF6E
:2007A000002813D03046214607F0CFFD0646394608F0F6FE002809D03046214607F0C5FD40
:2007C0000646394608F0ECFE0028E1D10020314607F0B6FD0646294608F0F6FE0028594FDA
:2007E0001DD03046394607F0B0FD0646294608F0EBFE002813D03046394607F0A6FD0646F1
:20080000294608F0E1FE002809D03046394607F09CFD0646294608F0D7FE0028E1D1304634
:20082000424F394608F0BCFE0028474C1DD03046214607F08AFD0646394608F0B1FE002859
:2008400013D03046214607F080FD0646394608F0A7FE002809D03046214607F076FD064668
:20086000394608F09DFE0028E1D100253046294608F08CFE002802D00598C0074640169C6A
:200880003046324908F08CFE0028274E01D000F039FC30682E4908F08DFE002800D045E3A0
:2008A0000426A3E400242B4E00963546199F01970294142620463146274A234609F08AF986
:2008C000009501970294282520462946224A234609F080F91F4800900197029420463146EA
:2008E0001E4A234609F076F91A48009001970294204629461A4A234609F06CF901261594CF
:2009000009940C941394079410980B90129418940E941194054F6CE410142020CDCCCC3DD2
:2009200000004041000040C1B4172020000034C3C61320206A132020061820206C1720203C
:20094000000034430000B4C30000B4430000C04000004843FFFF00002EE10000BEE100007B
:2009600019E20000BF200106284607F0EEFC09F08BFB0146381AC21790436422642800DB96
:2009800010467118CB1799436429159D00DB114606F03EFDDD4800780126002800D17BE1FF
:2009A0000E98002800D17CE20C9AFF2A04D0002A01D1D7480568521CD6480078012800D111
:2009C00009900998C1B248424841032A109900D3014600290C9200D065E2CD48006829469D
:2009E00007F0AEFCFF21890508F0E4FD002800D159E215951198401C1190C5B209F092FC4D
:200A000000242046214606F003FD042D01D200F00DFC07980024C00701D100F04DFCBE4857
:200A20000460BE480460BE480460BE48046009F009FEBD4809F09AFEBC4E00963546199FAB
:200A400001970294142620463146B94A234609F0C1F8009501970294282520462946B44A50
:200A6000234609F0B7F8B14800900197029420463146B04A234609F0ADF8AC4800900197B4
:200A8000029420462946AC4A234609F0A3F804260A94069417940D9400F007FC1298C007E6
:200AA000A64CA74D00D180E1A648C0681A9907F047FC0646214608F087FD002800D14BE1C7
:200AC0003046294607F041FC0646214608F07CFD002800D140E13046294607F036FC064665
:200AE000214608F071FD002800D135E13046294607F02BFCDDE79348C0681A9907F020FC8A
:200B00000446294608F060FD002818D02046314607F01BFC0446294608F056FD00280ED0C2
:200B20002046314607F011FC0446294608F04CFD002804D02046314607F007FCE0E72046DA
:200B4000394608F02DFD00283E467F4F1DD02046394607F0FAFB0446314608F021FD0028BD
:200B600013D02046394607F0F0FB0446314608F017FD002809D02046394607F0E6FB0446F6
:200B8000314608F00DFD0028E1D10020214607F0D7FB0446294608F017FD00283746684E92
:200BA0001DD02046314607F0D0FB0446294608F00BFD002813D02046314607F0C6FB044606
:200BC000294608F001FD002809D02046314607F0BCFB0446294608F0F7FC0028E1D1204640
:200BE000394608F0DDFC0028574D1DD02046294607F0ABFB0446394608F0D2FC002813D0E0
:200C00002046294607F0A1FB0446394608F0C8FC002809D02046294607F097FB04463946BF
:200C200008F0BEFC0028E1D1002630461A9905F019FA0746314608F0A9FC002800D0A4E1F3
:200C40003846A5E1069908F0A1FC0446179809F01BFA01463120C2439142084600DC104665
:200C60003222322800DB1046511ACA1791436429334E00DB6421323006F0CAFB002C00D1ED
:200C8000CDE12868314908F095FC002801D0FFF779FA0226FFF7AAFA0E9609940C9403E12A
:200CA0002046214606F0B4FB204F00973E46199F019702941425204629461D4A234608F07C
:200CC00089FF009601970294282620463146184A234608F07FFF15480090019702942046DB
:200CE0002946144A234608F075FF104800900197174F029420463146164AFFF771FA089898
:200D0000FF2800D050E2FF20169053E2C6132020B41720206B132020EC172020F017202044
:200D2000BC172020C41720206C172020FFFF00002EE10000BEE1000085E200000000344338
:200D40000000B4C3101420200000B44300004843000034C3FFE000003046394608F020FC57
:200D6000002810980B9020D03046E54C214607F0ECFA0646394608F013FC002813D03046DA
:200D8000214607F0E2FA0646394608F009FC002809D03046214607F0D8FA0646394608F0E7
:200DA000FFFB0028E0D110980B90189600242046214606F02DFB1398C00733D00024EC4E8D
:200DC00000963546199F01970294142620463146E84A234608F0FEFE009501970294282566
:200DE00020462946E34A234608F0F4FEE04800900197029420463146DF4A234608F0EAFE69
:200E0000DB4800900197029420462946DB4A234608F0E0FE05260F94139408941294D84FDA
:200E2000FFF7E4F9D7480460D7480460D7480460D748046009F006FCCD4E00963546199FF4
:200E400001970294142620463146CA4A234608F0C1FE009501970294282520462946C54A25
:200E6000234608F0B7FEC24800900197029420463146C14A234608F0ADFEBD480090019773
:200E8000029420462946C34A234608F0A3FE01260E94159409940C9412941394B84FFFF7DF
:200EA000A5F900200E902C46BB480068BB4908F081FB002803D11594B14FFFF797F9002531
:200EC0002846294606F0A4FAA948009007461694199C01940295142628463146A54A2B46C9
:200EE00008F078FE009701940295282728463946A04A2B4608F06EFE9D4800A931C12846D8
:200F000031469D4A2B4608F065FE994800A931C128463946A24A2B4608F05CFE09F002FA9A
:200F2000072616981590964FFFF760F92046214606F06EFA8E4F00973E46199F01970294F4
:200F40001425204629468B4A234608F043FE009601970294282620463146864A234608F0EC
:200F600039FE834800900197029420462946824A234608F02FFE7E4800900197804F02942F
:200F800020463146874AFFF72BF93846059948403F210D06294608F0F9FA049020463146A7
:200FA00008F008FBBF210906002803952C4600D10C4608910498002800D13C462046314665
:200FC00008F0E4FA002801D1204601E005986040FA4F0546314608F0EDFA0028089900D03A
:200FE0000399284607F0B1F909F04EF80546122800DC1225232D00D323252046314608F02F
:20100000D9FA6942002801D1284601E00846294606F0FEF90F98401C0F900526FEE00D980F
:20102000002800D1FEE0FF2804D0022800D240E1401C0D9028680A9907F082F97F21C905B5
:2010400008F0B8FA002800D11BE609F06BF90B98C00700D15FE11898D74C214607F075F975
:201060000746214608F0B0FA0028D54D1DD03846314607F06AF90746214608F0A5FA002821
:2010800013D03846314607F060F90746214608F09BFA002809D03846314607F056F907465E
:2010A000214608F091FA0028E1D13846C34C214608F076FA0028129E00D12EE1384629466B
:2010C00007F043F90746214608F06AFA002800D123E13846294607F038F90746214608F00F
:2010E0005FFA002800D118E13846294607F02DF90746214608F054FA0028DFD10DE1C046D5
:201100000000B4432846294606F082F9A74F00973E46199F01970295142428462146A44A97
:201120002B4608F057FD0096019702952826284631469F4A2B4608F04DFD9C480090019752
:201140000295284621469B4A2B4608F043FD974800900197994F0295284631469B4A2B46D4
:2011600008F038FD052608950F95FFF73FF8C046FFFF00002EE10000BEE10000B5E2000060
:20118000000034C3EC172020F0172020BC172020C417202019E20000B41720200000F04268
:2011A000AAE1000044E10000411C1691042801D2FFF7C5F900242046214606F029F97B4FF5
:2011C00000973E46199F01970294142520462946774A234608F0FEFC0096019702942826D2
:2011E00020463146724A234608F0F4FC6F48009001970294204629466E4A234608F0EAFCBC
:201200006A48009001976D4F0294204631466D4A234608F0DFFC09F085F8062616980890EA
:20122000FEF7E4FF01200D90FFF7B2F86848046068480460684804606848046009F002FA33
:20124000614809F093FA594F00973E46199F01970294142520462946554A234608F0BAFCF2
:20126000009601970294282620463146504A234608F0B0FC4D4800900197029420462946B0
:201280004C4A234608F0A6FC484800900197029420463146534A234608F09CFC02260120AB
:2012A000800706900D940A9417941494434FFEF79DFF02200D90E4E43C4E00963546199F82
:2012C00001970294142620463146394A234608F081FC009501970294282520462946344A05
:2012E000234608F077FC314800900197029420463146304A234608F06DFC2C480090019726
:20130000029420462946314A234608F063FC05260F940894C1E5109E189F1198401C11900C
:20132000C0B2002403281897129601D8139401E001201390264804602648046026480460FA
:201340002648046009F07EF9184E00963546199F01970294142620463146154A234608F017
:2013600039FC009501970294282520462946104A234608F02FFC0D480090019702942046F4
:2013800031460C4A234608F025FC084800900197029420462946124A234608F01BFC03261E
:2013A0000D940A94054FFEF721FFC046FFFF00002EE10000BEE1000000003443000034C365
:2013C0000000B4438CE200006C172020B5E20000EC172020F0172020BC172020C417202096
:2013E000C7E20000CDE20000F0B585B001273D05FD4E35606424204608F090FD3046103840
:2014000004900560204608F089FDF8043060204608F084FD3806306001460290F805F34E9F
:2014200030600390FD0735603C0734603746103F3D60356034603D60356034603D6035608F
:201440003C603D60356034603D60356034603D60356034603D6035603C603D6038600498FF
:201460000160782008F05AFD0299DF4B1960039A326035603C603D60356034603D6035608E
:201480003C603D6035603C603D60356034603D60356034603D60356034603D6035603C60C2
:2014A0003D603A60049801603260356034603D60356034603D60356034603D6035603460EB
:2014C0003D60356034603D6035603C603D60356034603D6035603C603D603A603260356086
:2014E00034603D60356034603D6035603C603D6035603C603D6035603C603D6035603C605A
:201500003D60356034603D60356034603D603A603260356034603D60356034603D60356055
:201520003C603D6035603C603D6035603C603D6035603C603D60356034603D603560346019
:201540003D603A601960326035603C603D60356034603D6035603C603D6035603C603D6019
:20156000356034603D60356034603D6035603C603D60356034603D603A6001603260356029
:2015800034603D60356034603D60356034603D60356034603D60356034603D6035603C60D1
:2015A0003D60356034603D6035603C603D603A603260356034603D60356034603D603560AD
:2015C0003C603D6035603C603D6035603C603D6035603C603D60356034603D603560346079
:2015E0003D603A603260356034603D60356034603D6035603C603D6035603C603D60356065
:201600003C603D6035603C603D60356034603D60356034603D603A601960326035603C6061
:201620003D60356034603D6035603C603D6035603C603D60356034603D60356034603D601F
:2016400035603C603D6035603C603D603A6001603260356034603D60356034603D60356040
:2016600034603D60356034603D60356034603D6035603C603D60356034603D6035603C60E8
:201680003D603A603260356034603D60356034603D6035603C603D6035603C603D603560C4
:2016A0003C603D6035603C603D60356034603D60356034603D603A603260356034603D60A5
:2016C000356034603D6035603C603D6035603C603D6035603C603D6035603C603D60356077
:2016E00034603D60356034603D603A603260356034603D60356034603D60356034603D6075
:20170000356034603D60356034603D6035603C603D60356034603D6035603C603D603A6041
:201720003260356034603D60356034603D6035603C603D6035603C603D6035603C603D6021
:2017400035603C603D60356034603D60356034603D603A603260356034603D603560346014
:201760003D6035603C603D6035603C603D6035603C603D6035603C603D60356034603D60CE
:20178000356034603D603A601960326035603C603D60356034603D6035603C603D603560E7
:2017A0003C603D60356034603D6035603C603D60356034603D60356034603D603A600160D5
:2017C0003260356034603D60356034603D60356034603D60356034603D60356034603D6099
:2017E0003560346004E0C046A0320A40A0120A403D6035603C603D6035603C603D603A60EB
:201800001960326035603C603D6035603C603D60356034603D60356034603D60356034606C
:201820003D60356034603D60356034603D60356034603D603A600160326035603C603D605E
:20184000356034603D6035603C603D60356034603D6035603C603D60356034603D60356005
:201860003C603D6035603C603D603A603260356034603D60356034603D60356034603D60E3
:20188000356034603D6035603C603D60356034603D6035603C603D6035603C603D603A60B8
:2018A0003260356034603D60356034603D60356034603D60356034603D60356034603D60B8
:2018C00035603C603D60356034603D60356034603D603A601960326035603C603D603560A6
:2018E0003C603D60356034603D60356034603D60356034603D60356034603D60356034606E
:201900003D6035603C603D603A600160326035603C603D6035603C603D60356034603D606D
:20192000356034603D60356034603D6035603C603D60356034603D6035603C603D603A601F
:201940001960326035603C603D6035603C603D60356034603D60356034603D60356034602B
:201960003D60356034603D6035603C603D60356034603D603A6001603260356034603D601D
:20198000356034603D60356034603D60356034603D6035603C603D6035603C603D603560C4
:2019A00034603D6035603C603D603A603260356034603D60356034603D60356034603D60AA
:2019C000356034603D60356034603D60356034603D60356034603D60356034603D603A608F
:2019E0001960326035603C603D6035603C603D60356034603D60356034603D60356034608B
:201A00003D60356034603D6035603C603D6035603C603D603A600160326035603C603D606C
:201A2000356034603D60356034603D60356034603D6035603C603D6035603C603D60356023
:201A400034603D6035603C603D603A603260356034603D6035603C603D6035603C603D60F9
:201A6000356034603D6035603C603D60356034603D6035603C603D60356034603D603A60DE
:201A80001960326035603C603D6035603C603D60356034603D60356034603D6035603460EA
:201AA0003D6035603C603D60356034603D60356034603D603A600160326035603C603D60D4
:201AC000356034603D60356034603D60356034603D6035603C603D6035603C603D60356083
:201AE00034603D6035603C603D603A60326035603C603D6035603C603D6035603C603D6051
:201B0000356034603D6035603C603D6035603C603D6035603C603D60356034603D603A6035
:201B20001960326035603C603D6035603C603D60356034603D60356034603D603560346049
:201B40003D6035603C603D60356034603D6035603C603D603A6001603260356034603D6033
:201B6000356034603D60356034603D60356034603D6035603C603D6035603C603D603560E2
:201B80003C603D6035603C603D603A601960326035603C603D6035603C603D6035603C60CC
:201BA0003D60356034603D60356034603D60356034603D60356034603D60356034603D60AA
:201BC0003A6001603260356034603D60356034603D60356034603D60356034603D603560CB
:201BE00034603D6035603C603D6035603C603D6035603C603D603A603260356034603D6058
:201C0000356034603D60356034603D60356034603D6035603C603D6035603C603D60356041
:201C20003C603D60356034603D603A603260356034603D60356034603D60356034603D6027
:201C4000356034603D6035603C603D60356034603D60356034603D60356034603D603A6004
:201C60003260356034603D60356034603D60356034603D60356034603D60356034603D60F4
:201C800035603C603D6035603C603D6035603C603D603A603260356034603D6035603460BF
:201CA0003D60356034603D6035603C603D60356034603D60356034603D60356034603D60A1
:201CC000356034603D603A603260356034603D60356034603D60356034603D603560346097
:201CE0003D60356034603D6035603C603D6035603C603D6035603C603D603A603260356056
:201D000034603D60356034603D60356034603D60356034603D60356034603D603560346051
:201D20003D6035603C603D60356034603D603A603260356034603D60356034603D60356025
:201D400034603D60356034603D60356034603D6035603C603D6035603C603D6035603C60F9
:201D60003D603A603260356034603D60356034603D60356034603D60356034603D603560ED
:201D80003C603D60356034603D60356034603D6035603C603D603A603260356034603D60BE
:201DA000356034603D60356034603D60356034603D6035603C603D6035603C603D603560A0
:201DC0003C603D6035603C603D603A603260356034603D60356034603D6035603C603D6076
:201DE000356034603D60356034603D6035603C603D60356034603D6035603C603D603A605B
:201E00003260356034603D60356034603D6035603C603D6035603C603D60356034603D6042
:201E200035603C603D6035603C603D60356034603D603A603260356034603D603560346025
:201E40003D60356034603D60356034603D60356034603D60356034603D60356034603D6007
:201E6000356034603D603A603260356034603D60356034603D60356034603D6035603460F5
:201E80003D6035603C603D60356034603D60356034603D60356034603D603A6032603560C4
:201EA00034603D60356034603D60356034603D60356034603D60356034603D6035603C60A8
:201EC0003D60356034603D60356034603D603A603260356034603D60356034603D6035608C
:201EE00034603D6035603C603D60356034603D60356034603D60356034603D603560346068
:201F00003D603A601960326035603C603D6035603C603D6035603C603D60356034603D604F
:201F2000356034603D60356034603D60356034603D6035603C603D603A600160326035605F
:201F400034603D60356034603D60356034603D60356034603D6035603C603D603560346007
:201F60003D6035603C603D60356034603D603A603260356034603D60356034603D603560E3
:201F800034603D60356034603D6035603C603D6035603C603D60356034603D6035603C60B7
:201FA0003D603A603260356034603D60356034603D60356034603D60356034603D603560AB
:201FC0003C603D60356034603D60356034603D60356034603D603A603260356034603D6084
:201FE000356034603D60356034603D60356034603D60356034603D6035603C603D60356066
:202000003C603D6035603C603D603A603260356034603D60356034603D60356034603D603B
:20202000356034603D6035603C603D6035603C603D6035603C603D6035603C603D603A6008
:202040003260356034603D60356034603D60356034603D60356034603D60356034603D6010
:2020600035603C603D6035603C603D6035603C603D603A603260356034603D6035603460DB
:202080003D60356034603D60356034603D60356034603D60356034603D6035603C603D60BD
:2020A000356034603D603A603260356034603D60356034603D60356034603D6035603460B3
:2020C0003D60356034603D6035603C603D6035603C603D6035603C603D603A603260356072
:2020E00034603D60356034603D60356034603D60356034603D6035603C603D603560346066
:202100003D60356034603D6035603C603D603A603260356034603D60356034603D60356041
:2021200034603D60356034603D6035603C603D6035603C603D6035603C603D6035603C600D
:202140003D603A603260356034603D60356034603D6035603C603D60356034603D60356001
:2021600034603D6035603C603D60356034603D6035603C603D603A603260356034603D60DA
:20218000356034603D6035603C603D6035603C603D60356034603D6035603C603D603560B4
:2021A00034603D6035603C603D603A603260356034603D60356034603D60356034603D60A2
:2021C000356034603D60356034603D60356034603D60356034603D60356034603D603A6087
:2021E0003260356034603D60356034603D60356034603D60356034603D6035603C603D6067
:20220000356034603D60356034603D6035603C603D603A603260356034603D603560346049
:202220003D60356034603D60356034603D60356034603D6035603C603D60356034603D601B
:20224000356034603D603A603260356034603D60356034603D60356034603D6035603C6009
:202260003D60356034603D60356034603D60356034603D60356034603D603A601960326004
:2022800035603C603D6035603C603D6035603C603D6035603C603D6035603C603D603560A3
:2022A0003C603D60356034603D60356034603D603A600160326035603C603D6035603460D5
:2022C0003D60356034603D60356034603D60356034603D60356034603D60356034603D6083
:2022E000356034603D603A6019603260356034603D60356034603D6035603C603D60356084
:202300003C603D6035603C603D60356034603D6035603C603D60356034603D603A60016061
:202320003260356034603D60356034603D60356034603D60356034603D60356034603D602D
:2023400035603C603D60356034603D6035603C603D603A6019603260356034603D6035601B
:2023600034603D6035603C603D6035603C603D60356034603D6035603C603D6035603C60CB
:202380003D60356034603D603A600160326035603C603D6035603C603D60356034603D60EB
:2023A000356034603D6035603C603D60356034603D60356034603D60356034603D603A609D
:2023C00019603260356034603D60356034603D6035603C603D60356034603D6035603460A9
:2023E0003D60356034603D60356034603D6035603C603D603A6001601960326035603460B7
:202400003D60356034603D6035603C603D60356034603D6035603C603D60356034603D6031
:20242000356034603D6035603C603D603A60016019603260356034603D60356034603D6076
:2024400035603C603D60356034603D6035603C603D60356034603D6035603C603D603560F1
:2024600034603D603A6001603260356034603D60356034603D60356034603D603560346023
:202480003D60356034603D60356034603D60356034603D60356034603D603A6032603560C6
:2024A00034603D60356034603D60356034603D6035603C603D6035603C603D60356034609A
:2024C0003D6035603C603D60356034603D603A603260356034603D60356034603D6035607E
:2024E00034603D60356034603D60356034603D60356034603D60356034603D60356034606A
:202500003D603A603260356034603D6035603C603D6035603C603D60356034603D60356035
:202520003C603D60356034603D60356034603D6035603C603D603A6019603260356034603A
:202540003D60356034603D6035603C603D60356034603D6035603C603D60356034603D60F0
:2025600035603C603D6035603C603D603A6001603260356034603D60356034603D60356011
:2025800034603D60356034603D60356034603D60356034603D60356034603D6035603460C9
:2025A0003D603A603260356034603D60356034603D60356034603D60356034603D603560A5
:2025C00034603D60356034603D60356034603D6035603C603D603A603260356034603D607E
:2025E000356034603D60356034603D60356034603D60356034603D60356034603D60356068
:2026000034603D60356034603D603A60326035603C603D60356034603D6035603C603D6035
:20262000356034603D60356034603D60356034603D60356034603D60356034603D603A6022
:2026400019603260356034603D60356034603D6035603C603D60356034603D6035603C601E
:202660003D6035603C603D60356034603D60356034603D603A6001600448009000205022FA
:20268000A023014602F070FB05B0F0BDFFFF0000F0B5F3B007930592799A0E92789E00250C
:2026A000EA4309927090139112950878934C20184378D80623D513984A1CDB0606D5481CAE
:2026C000117861184B78521C0146F6E7139070A8B0470746401C01D100F0B2FD08F085F862
:2026E00003D570A8B0470746F8E770A808F0FCF81298401E1290781C01D100F0A1FD012004
:20270000069054A801466C310F9101460C3104910D30019014A8401C029010950B95119626
:2027200054A8702108F084F80998559070A813A912AA079B984701280AD0002801D100F014
:2027400087FD401C01D100F07DFD0F98007878E01398461C139641782A2905D1549901223E
:202760000A435492861C13960027F05D01463039092907D8F019401C1390F05D71A9C8551A
:202780007F1CF2E771A90024CC550978F519002904D071A807F0A2FB559028784C282ED036
:2027A00068281ED06A2809D06C280FD0742809D07A282AD154980121090322E05498012181
:2027C000C9021EE05498012149031AE0F019451C1395427854996C2A00D070E20122120234
:2027E00009E0F019451C139542785499682A00D067E20122520211435491851C05E054986A
:20280000802101435491F019451C691C139128780F9A10705B28119E13D108785E2806D19F
:202820005498022101435491A91C1391A8785D2800D0A8E0481C1390097854AA1173019956
:20284000ABE05B38132816D8012181402C48014211D070AF3846B0470546384629460E9A42
:2028600090471299681C04D10029264D17D100F0E7FC244D13E0214C70A8B047074607F002
:20288000B4FFF9D470A808F02FF81298411E1291781C1C4D03D1002901D100F0D1FC0A91B1
:2028A0000F9803781946583920294ED8012049007944898849008F447101B902B902390121
:2028C000B902B902B902B902B9025300B902ED002700530053005300B9022700B902B902DE
:2028E000B902B902600327002700B902B902ED00B9022700B902B9022700C04610DD0000DC
:202900000101080048E200001D46559C70A8B047074607F0B5FF14AE002C4BD0214614AEF6
:202920002D2F02D02B2F00D0D3E014A8077070A8119C0E46A0473146074607F0A1FF711E6F
:2029400000D1ECE00C91029EC5E018464138062800D9B3E0012181407120014200D1ADE072
:20296000559C70A8B047074614AB401C09D007F087FF2B2F20D114AB002C22D12B270024FA
:202980002AE0099F28E00846049906E0421C139200784B1C0870104619460278002A01D028
:2029A0005D2AF3D10C7001785D2900D0CDE6401C1390CAE60024B4E014AB002C0CD02D2F44
:2029C0000AD114A8077070A8B0470746401C01D007F056FF641E029B384661381A2801D3C8
:2029E000384601E03846203800210A1D0C2A25D06E58317888421146F7D10025AC423FD0B5
:202A0000705D00283BD0394661391A2901D3394601E039462039814231D1384627461C463C
:202A2000585570A8119988470146401C01D007F027FF6D1C23463C460F46DFE70020002CEC
:202A4000089035D0302F33D130201093187070A8119EB0470746401C01D007F011FF109B11
:202A60005D1C601E002201210C91002800D12CE1394661391A2900D239E1394639E12C4625
:202A8000E01E41424141083C6042604104460C435D19B7E1549901250846284049061F4688
:202AA00075D4002800D0B7E2059810C80590B4E21D460C90024606990D912FE1252B00D0E8
:202AC000B4E170A8B047252800D00DE307F0D8FE0BE10C91119C0020FB4A2B46115C994224
:202AE00004D0401C0728F9D1002000E01018801A012811D1302F55D170A81090A047044672
:202B0000109821460E9A90472B4620208443583C601E8441E00046E0EC49085C43E00024F2
:202B2000029E2246204606990D9162E0559D5498022101400D9114AC002D00D1D3E070A83F
:202B4000B0470146471C00D1C1E0109525460C46C8B2002304990E7886420A4600D01A46F8
:202B6000491C002E1346F6D10D9B59425941531E9A419142119E21462C46109D00D0A6E01B
:202B8000611C207007F07CFE6D1E0C46D4E7002800D047E2059810C8059044E278230F988C
:202BA0000370B1E60A20109018466938C0B2102801D3002100E00121EB4CC4400C406F2B80
:202BC00006D1302F0AD0002006990D910C9A10E038463038414241410C42F4D03046761CED
:202BE000077070A81199884707F0F1FD00200D900698002C23D0002A21D000281FD02020FC
:202C00003946814358291AD10C9270AD2846119CA047014628460D460E9A9047D34840194D
:202C20004078800701D40C9A09E0377070A8A04707F0CDFD00D10DE3761C10201090069CC5
:202C4000002A23D01098082803D1302F01DB382F0EDB10980A2803D1302F01DB3A2F07DBEC
:202C60001098102812D1C148C019407880070DD5751C377070A811991446884722460746B6
:202C800007F0FEFD621E00242E46D9E770A807F02BFE1298401E1290002131700D982040C1
:202CA000012809D112980A9A4240F8431043119E00D1C9431091B9E00123119EBBE040201F
:202CC00000E02020014354919FE5144623E070A810910E9A904712980A99814203D1002F7F
:202CE00000D1A3E009E2002020700123A3E03946203958290ED15F7070A8B0470746401C7F
:202D000001D007F0BDFD1098851CA41E0020069A0C9001E0044606980D90089806460390E5
:202D20001092002C63D02B2F36D02D2F34D02E2F2CD0452F01D0652F0AD10D9800283DD0EB
:202D40000C98002853D0002E51D101260C9641E038463A380A21C94388420BD8002A46D036
:202D60008248C0194078800704D4202038437028E6D03CE02B2F0FD02D2F0DD0702FDFD0B4
:202D8000502FDDD0652FD8D02E2F17D1089830432DD1012008901CE00D98002805D0681E98
:202DA000007820210143652914D0002A1FD0681E00782021014370290CD018E0002E06D097
:202DC000384630380126092811D8039602E001200C9000262F7070A8119988470746401C95
:202DE00001D007F04DFD6D1C641E109A99E70C9C601E84410399481E8141002E069800D041
:202E000008460440119E70A807F06EFD781C02D01299491E129100222A701299002800D17C
:202E20003A460A98884200D022461092109B581C012800D80FE20F98017808465B381D2875
:202E4000109359D8800002A2125818469746C046D32E0000D12E0000D12E0000D12E0000D1
:202E6000D12E0000D12E0000132F0000D12E000007320000132F0000132F0000132F000014
:202E8000132F0000D12E0000132F0000D12E0000D12E0000D12E0000D12E00007B2F000009
:202EA000132F0000132F0000D12E0000D12E000007320000D12E0000132F0000D12E000017
:202EC000D12E0000132F000011DE0000AFE2000026E45499C80700D022E405980068490641
:202EE00000D550E114A94A1C0978431C0170002918461146F7D14FE108464138062801D9B3
:202F0000FFF70EFC012282407120024201D1FFF707FC14A80078002800D174E15498C207F5
:202F200000D070E10B46613B172B4DD800225B007B449B885B009F4451006601660102015D
:202F400051005100510066010301660166016601660166011B002201660166016601660136
:202F60001B00660166011B008180000010DD0000782900D1C4E00822C3E0549AD107109016
:202F800001D0FFF7CDFBB8490A40129901235C03A2423AD0402A38D01C02A24200D103E112
:202FA0005C02A24200D136E1DC02A24200D1FBE01B039A4229D0202A27D1059B04CB05933D
:202FC00011801090FFF7ACFB4139062900D91AE101228A4071210A4200D114E1C0210840EC
:202FE000802806D0402809D114A8002101F0E0FCFBE014A8002101F0DBFCF6E014A8002134
:2030000001F0D6FC05F0ECFEF9E0059B04CB059311601090FFF784FB00245598002833D468
:20302000054632E000245598002800D40546632B00D0054670A8B04707F0D0FB04D08948BC
:2030400040184078C0060BD4481C022808D3002D06D0002C01D002C400E000246D1EE9E72D
:2030600070A80E9A90471298401E12900A99814200D1EFE00123732F00D0DCE6002C00D1B4
:20308000D9E600202060D6E60125632B00D0054670A8B04707F0A2FB04D072484018407805
:2030A000C0060DD4481C02280AD3002D08D0002C03D0601C2170044600E000246D1EE7E746
:2030C00070A80E9A90471298401E12900A99814200D1BFE00123732F00D0ACE6002C00D1B4
:2030E000A9E600202070A6E6014670A80E9A109190471098401C00D198E60020109095E6F8
:203100001022752900D10A225749084001214B03984252D040285AD00B02984252D04B02A6
:2031200098427FD0CB0298424CD00903884244D020284CD114A8002103F016FE1AE00A224A
:203140004949084001214B03984245D0402852D00B02984245D04B02984268D0CB029842AA
:203160003FD00903884237D0202844D114A8002103F0BAFC059A02CA0592088043E014A817
:203180000021102225E014A90A78002A02D0491C04C0F9E7002101600598001D05900B981F
:2031A000401C0B90FFF7BCFACA17059C08CC059419605A601090FFF7B3FA14A8002103F037
:2031C000E3F91CE014A8002103F0DEF90DE014A8002103F0C9FD12E014A8002102F076FCBA
:2031E0000DE014A8002102F071FC059B04CB05931060516007E014A8002103F075FC059AB7
:2032000002CA059208605498012181430B9808180B90FFF785FA059B04CB05931170109016
:20322000FFF77EFA14A8002103F09EFD03E014A8002103F059FC059A02CA05920870E2E76A
:2032400009980DE00B990029099809D0084607E00B9805E0099B0B98002800D003461846F6
:2032600073B0F0BD10DD0000603F0000F0B5FFB08EB0049306920646929802900025E843D9
:2032800005908C913468204607F0C4FA21188B9503918C4200D3BBE00020879087A90873BA
:2032A0008890059889902F46049D2078002800D1AFE0252805D0641C34600699A8477F1CAB
:2032C000F3E78B97601C306087AC2046314600F0A7F88CAA2046314600F0BFF8306801787C
:2032E0007A2925D0682919D06A2908D06C290ED0742908D04C2922D1879980221BE0879924
:203300000122D20217E087990122520313E0427887996C2A64D10122120205E04278879999
:20332000682A60D10122520211438791801C05E08799012212030A438792401C0178441C73
:20334000346087A8017373291FD06E2929D1879832490840202850D040283CD001214A03ED
:20336000904238D04A02904242D0CA02904205D00A0390422FD0090288422CD1F8178C99EC
:2033800004C98C91176050603BE087A80078400619D4009587A88CAA8BAB069900F01DF952
:2033A0002FE007AD87A98CAA284600F06DF9024628460699029B9847411C059D00D0C519A2
:2033C0008B9503991FE0009587A88CAA8BAB069900F09FF815E08C9802C88C900F6010E07E
:2033E000401C402201E0401C202211438791A5E78C9802C88C900F7003E08C9802C88C9022
:203400000F8003998B9D681C00D042E7059F00E02F4638467FB00EB0F0BDC046603F000026
:2034200010B50A681378302B0FD0232B07D02B2B09D02D2B05D0202B0ED1042306E00823AD
:2034400004E0012302E0022300E0102304681C430460521C0A60E5E710BDFEB516460D4648
:203460000446086802782A2A10D13068011D316000686060002805D5404260602068012186
:20348000014321602868471C2F6017E00021303A092A08D84218531C2B60435C6F467B54D9
:2034A0005278491CF3E76A460023535412784718002A03D0684606F011FD606038782E282B
:2034C00026D1781C286079782A2908D13068011D31600068A0602868401C2860FEBD0020BE
:2034E0003039092908D839188A1C2A604A786B461A548978401CF3E76A46002111541078FA
:20350000002804D0684606F0E9FCA060FEBDA160FEBDF0B587B01E460C9F13681C1D14609C
:203520001D68002D3BD0049106908468002C04D4284607F035F9844203D3284607F030F9F6
:20354000044606984068A042039000DC204601463068019140180296306005940398A0421D
:203560000EDD06980078C0070AD1059801990E1A0024B44204DA20200499B847641CF8E716
:203580000026049C069805998E420BDA2868010A19D12D1DC0B22146B847761CF2E7002042
:2035A000B84718E00599039A8A4214DD0078C00711D00198451A0024AC420CDA202004992F
:2035C000B847641CF8E70020C0430299086007F06FF95821016007B0F0BDF0B585B00C469E
:2035E00006460A9D1068011D116000680490002844D00393B768002F04D4049807F00AF947
:20360000874203D3049807F005F9074602967268BA42114600DC3946039B18680091401806
:2036200018600192BA420FDD02980078C0070BD10098C01B039000260398864204DA202035
:203640002146A847761CF7E70026BE4205DA0498805D2146A847761CF7E70198B84210DDE0
:2036600002980078C0070CD00098C61B0027B74207DA20202146A8477F1CF8E70020214684
:20368000A84705B0F0BDC046F0B589B001920F460446FF210846FA30251878680290002656
:2036A00007960391FE3120222046009207F0A4F87F20800006942118089104952E713D4697
:2036C000387B0246613A172A2AD8012393402C46B44D2B42254608D007A908AA2846019B8B
:2036E00000F066F900260596B3E071252B42254622D1022A14D1019B1868021D1A60006898
:20370000C2B2534253410593039AFC32069B9A18089208702868022188432860002698E0A0
:2037200001464539032907D3252860D0412803D058280596D0D08DE0019A1068C11D0720C5
:20374000814308460830106005C9D1432F7B4900490D0BD17B3F944911400143049C2CD0E0
:203760001920C1438F4234D36E2033E0002A01D4114602E00121C9075140D60F002205923A
:203780003A46413A062A0BD9613F062F61D8C0467F443F797F00BF440B5C5C5C3B36310048
:2037A0007A4412795200974403545454332E290008AB2A4601F080FE4BE0002311461A4673
:2037C000059305F0B1FE1921C9438F4225D3662224E04E20E0708F4201D3612100E04121EB
:2037E000A1700894607000200590022631E0002006994870252008700120A1E008AB2A4665
:2038000002F042FB25E008AB2A4606F027F820E008AB2A4603F0D2FB1BE04622E2708F42D3
:2038200001D36E2200E04E22A2708F4201D3692100E0492161703F21C900069A51180891AD
:20384000002803D02D202070042602E02B2020700326287B012701466F39092904D8012295
:203860008A4052490A4201D158286BD1049B029C04972946069F3D1908980C460978C90784
:2038800007D1191D091A62689142069F01DC691A4F1C411C0398430000263846324606F09D
:2038A00083FE08900599002903D0411C0891067000E00146A94206D8481E691A491C202269
:2038C00006F09AFF2E702078C00605D40698391A202206F091FF2EE0069887422BD00698BD
:2038E000391A3026324606F087FF07984142414104980140012905D12078400702D4384677
:20390000069905E03878069A511C1070781C3E70227B412A0CD0582A05D0612A08D0782A64
:2039200001D0702A07D123781B0701D4612A02D142784A704670069806F06CFF0599401835
:2039400009B0F0BD002E09D0012E049B029C8FD10120079029680220084007E0079A296862
:2039600002200840002A09D0049B029C08994A1E08922D220A704742474179E70028049BF9
:20398000029C08D1480700D472E70898411E0891009901706CE70898411E08912B210170EA
:2039A000002765E708C19000FFFF0F0043020000F8B514460F4605468068002804D42868CA
:2039C00010218843286001E00120A860287B1026582808D0782806D0702804D06F2801D1DD
:2039E000082600E00A262846194600F055F8AA68002A09D102460A4306D12878000749D538
:203A00002B7B0020024612E02B7B642B03D1642300290BD504E0692B08D1002906D569232C
:203A200001223A60002240428A4100E00A4600941146324600F0B0F8A968884206DA401C18
:203A400021684A1E226030220A70F5E7287B582803D0782801D070280FD1297809070CD5DA
:203A6000702800D1782021684A1E226008702068411E216030210170287B6F280AD128787B
:203A8000000707D520684178302903D0411E216030210170F8BDC04610B5037B702B05D1C5
:203AA0000868021D0A60006800226FE00068384A024001204403A24222D0402A20D004026A
:203AC000A24230D04402A24246D0C402A2422AD00403A24214D0202A12D100221C46643CFE
:203AE000142C06D8A0402B4C204204D1212420423ED1582B49D10868031D0B60008845E01F
:203B000000221C46643C142C06D8A040214C204204D1212420422BD1582B36D10868031D22
:203B20000B60006832E01A46643A142A06D89040184A104206D12122104203D10020582B1F
:203B4000024623D10868C21D072082431046083008601068526819E000221C46643C142C69
:203B60000CD8A0400B4C20420AD12124204205D00868021D0A600068C21707E0582B04D1F8
:203B80000868031D0B60007800E01046114610BD603F000000081200FEB501920D460646BA
:203BA000582B01D0174800E015480090089802903046284305D1029A1068411E1160302167
:203BC0000170019C3046284313D030462946224600F01AF807460D46224606F0C1FC301ABF
:203BE0000099085C029B19684A1E1A6008703E46E8E70298006806F00DFE401EFEBDC046DB
:203C00004CE000005DE0000080B5102A06D0082A09D1C0084A078018C90880BD00090A0711
:203C20008018090980BD002904D1114606F016F9002180BD002306F069FD80BDF0B59BB039
:203C40007F20800206901C4C012008904002059000263046314603F0DBFB10270094019776
:203C60000296164A142530462946334605F0B2FF0094019702962824304621460F4A334650
:203C800005F0A8FF0C480090019702960C4A30462946334605F09EFF074800900997019717
:203CA0000296084A304603942146334605F092FF0C963746354645E0FFFF0000A0E000006A
:203CC000B4E1000034E200000025FB4800900446099F01970295142107912846F74E324628
:203CE0002B4605F077FF00940197029528242846214632460B9E2B4605F06CFFFA48009040
:203D00000197029528460799ED4A2B4605F062FFF548009001970A9F029528462146FA4AAA
:203D20002B4605F057FF04F01DFE03282FD0022800D1C7E100252846294603F069FB0A2068
:203D400006F0ECF804F00EFE032805D0022800D1B8E1E807EED04EE0E80718D000252846B0
:203D6000294603F055FB0C9831280B960A97ABD906F06EFB0146384604F07EFE0446294681
:203D800005F018FC002800D1BBE03F20BAE006F059FCDE4806F0EAFC0024D34F00973D46E0
:203DA000099E01960294142720463946CF4A234605F010FF009501960294282520462946A5
:203DC000CA4A234605F006FFC74800900196029420463946C64A234605F0FCFEC2480090B9
:203DE00027460196029420462946C94A234605F0F1FE0C942646C8480078002841D0002601
:203E0000C648805706F0C8F80446C548805706F0C3F80246BD48214603F006FCC14904F081
:203E20005BFD054606F030F901463620C2439142084600DC10462D2800DB2D203722511A8A
:203E4000CA179143642900DB6421373003F0E0FAB5480068B54905F0ADFB411E8841B44967
:203E600009784A1E51425141014001D10120C5070C9840180C903846294604F066FA07460E
:203E80003DE0F0B2461CF4B20025B44200D0EC43E1B2052933D32846294603F0B9FA92481D
:203EA00000900B94099E019602950A971427284639468E4A2B4605F08DFE8B480090019672
:203EC0000295282428462146884A2B4605F082FE8548009001960295284639460A9F884A7F
:203EE0002B4605F077FE8048009001960B9E0295284621468F4A2B4605F06CFE1FE7089D8F
:203F00001DE7BF200106204604F01FFA06F0BCF807460720C043874200DC0746082F00DB1F
:203F200008273720C21B37376C48139001201490159716920C991791189567481A9008469F
:203F4000049250407840674948401990EFF31080079072B66248069C2146059A04F018F91A
:203F600040225F48214606F097FB032810D15C48069D2946059C224604F00AF9009413AA36
:203F800008235748294604F0B9FDC01E454245410798002802D0002D03D15DE062B6002D37
:203FA0005AD0544800684D49884255D151484068012851D14F48C069474988424CD14D48F5
:203FC000C06801464C39039AD243914244D3494989680B464C3B93423ED3464C10341CCC52
:203FE00054405C404C4044403E48844234D1049800900DA8079018213F4A3B4605F09EFDE5
:204000000027394C00942546099E01960297142438462146354A3B4605F0DCFD00A8E0C0EB
:20402000282538462946314A3B4605F0D3FD2E4800A9C1C138462146304A3B4605F0CAFD48
:20404000294800A9C1C138462946079A3B4605F0C1FD06F067F92BE0002523480090044637
:20406000099E019602951427284639461F4A2B4605F0B0FD009401960295282428462146E4
:204080001A4A2B4605F0A6FD1748009001960295284639461A4A2B4605F09CFD124800905C
:2040A0000196029528462146164A2B4605F092FD0B9E0A9F3EE6C046FFFF0000A0E00000AE
:2040C00023E100000020014603F0A2F91148012101701BB0F0BDC046CEB3BEBC314C414381
:2040E00000D00C40958F7D19FFFF0000A0E00000B4E1000000FC010017E10000A1E200005F
:2041000023E100000BE1000039E100006C17202004DD00000E182020C61320206A132020B5
:20412000061820206666863FB41720200000C8416B1320208CE1000098B0994D05F0E6FB4D
:204140000126B0049749086006F024F805F0D0FC06F014F904F0B8FEFDF746F900950024D0
:204160005022A0232046214600F0FEFD102000950690019002948C4A0A201421234605F03D
:2041800029FD8A4910A8324605F09AFF0E942146069C0C91009501940E9802908DB220223D
:2041A0000F9207462946FD4B00F002FAFB4800A991C108200B900D9529460F9AF74B00F081
:2041C000F7F9F64800A991C1204629460F9D2A46F24B00F0EDF9F14800A991C118200A90AC
:2041E0000D992A46ED4B00F0E3F9EC4800A991C128460D992A46E94B00F0DAF9E74800A923
:2042000091C1282009900D9F39462A46E34B00F0CFF9E248009001940E980290302008907B
:2042200039462A46DD4B00F0C3F9DC48009001940E9F0297382007900D992A46D74B00F015
:20424000B7F9D64800A991C1402005900D9F39462A46D24B00F0ACF9D048009001940E9870
:204260000290482003903946CC4D0F9A2B4600F09FF90C982043009501940E9F029781B2CD
:204280000D9138460F9A2B4600F092F90095019402970B980D9F39460F9A2B4600F088F951
:2042A000009501940E980290204639460F9A2B4600F07EF9009501940E9F02970A980D997E
:2042C0000F9A2B4600F074F90095019402970F980D9902462B4600F06BF900950194029787
:2042E00009980D990F9A2B4600F062F900950194029708980D990F9A2B4600F059F9009518
:204300000194029707980D990F9A2B4600F050F900950194029705980D9F39460F9A2B4632
:2043200000F046F9009501940E980290039839460F9A2B4600F03CF90C992031902F00D20C
:2043400027E700240095069D019502940A201E2110AA234605F03EFC0496A00091490F18D1
:2043600009E00620002590490D702018072105F075FDA14210D104F0F5FA0128F1D0022831
:2043800003D00328F7D13046ECE7874800780028F1D138688047EEE7022909D3E84308E087
:2043A000FFFF0000A0320A40A8E20000FEE1000001200A4602297A4900D37C490592821852
:2043C00010A805F07DFE2846744E0F950E900096069D01950F99029184B220270F982146AE
:2043E0003A46334600F0E4F8009601950F98029008200D9021463A46334600F0D9F8009617
:2044000001950F980290284621463A46334600F0CFF8009601950F98029018200C902146A8
:204420003A46334600F0C4F8009601950F980290384621463A46334600F0BAF800960195C6
:204440000F98029028200B9021463A46334600F0AFF8009601950F98029030200A90214693
:204460003A46334600F0A4F8009601950F9802903820099021463A46334600F099F80096EA
:2044800001950F9802904020089021463A46334600F08EF8009601950F980290482007901B
:2044A00021463A46334600F083F80E982843009601950F99029184B20F9821463A4633467C
:2044C00000F076F8009601950F9802900D9821463A46334600F06CF8009601950F9802905B
:2044E000284621463A46334600F062F8009601950F9802900C9821463A46334600F058F8FB
:20450000009601950F980290384621463A46334600F04EF8009601950F9802900B982146B3
:204520003A46334600F044F8009601950F9802900A9821463A46334600F03AF800960195A1
:204540000F980290099821463A46334600F030F8009601950F980290089821463A463346A4
:2045600000F026F8009601950F9D0295079821463A46334600F01CF80E982030902C00D237
:2045800024E700230096069D019502930A201E2110AA05F01FFB059C049EDEE6FFFF000052
:2045A000FEE10000F0DF00000E182020ECE10000F0B58DB00893174607910990139C6008F8
:2045C00025090B90400700D06D1C654309980B9941184E1E07990A19521E93B2B2B202F0F2
:2045E00091FE002D29D00C3CE0B2A10180080818C4B2052C21D801200C90A0402B2108420F
:204600001BD0203F681E032105F028FC491C002003290590019000D00191009114980A907D
:2046200012980690F8B20390032D049407D2099F059E0098032800D0FEE00DB0F0BD01989D
:20464000281A02900026099F05960AE00798401C0790099F0598C01C059002998842049CE6
:20466000E7D0032C0CD0012C06D0002C0DD10C2003994843CC490BE003980001C94907E083
:20468000302003994843C64902E003988001C749081805994018057800240BE003F0CAF82F
:2046A000761CF0B20B9905F0D9FB002926D0641C082C24D00C98A04028400A99002913D0F7
:2046C000002809D0B8B2079989B202460B4602F019FE089803F0AEF87F1CB8B20999401AB8
:2046E0000B998842E3D104E000280698D6D00898D4E70798401C0790099F00E00026059810
:20470000401C049900290CD0012906D003290DD13021039A5143A24A0BE003990901A14AA7
:2047200007E00C21039A51439F4A02E0039989019E4A51180818057800240BE003F07AF8E1
:20474000761CF0B20B9905F089FB002926D0641C082C24D00C98A04028400A99002913D0A6
:20476000002809D0B8B2079989B202460B4602F0C9FD089803F05EF87F1CB8B20999401AB8
:204780000B998842E3D104E000280698D6D00898D4E70798401C0790099F00E0002605986F
:2047A000801C049900290CD0012906D003290DD13021039A51437A4A0BE003990901794A17
:2047C00007E00C21039A5143774A02E003998901764A51180818057800240CE003F02AF8E0
:2047E000761CF0B20B9905F039FB002922D0641C082C00D12EE70C98A04028400A9900294B
:2048000013D0002809D0B8B2079989B202460B4602F078FD089803F00DF87F1CB8B2099930
:20482000401A0B998842E2D110E700280698D5D00898D3E700260DE7002002900EE00798E8
:20484000401C0790099F0598801C05900299891C019802918142049C00D1EEE6002C0CD073
:20486000012C06D0032C0DD13020039948434C490BE0039800014B4907E00C2003994843C7
:20488000494902E0039880014849081805994018057800240BE002F0CDFF761CF0B20B99BF
:2048A00005F0DCFA002926D0641C082C24D00C98A04028400A99002913D0002809D0B8B260
:2048C000079989B202460B4602F01CFD089802F0B1FF7F1CB8B20999401A0B998842E3D1F4
:2048E00004E000280698D6D00898D4E70798401C0790099F00E0002602980C9908430199A9
:204900008842049900D198E60598401C00290CD0012906D003290DD13021039A5143204AED
:204920000BE0039909011F4A07E00C21039A51431D4A02E0039989011C4A5118081805785D
:2049400000240CE002F076FF761CF0B20B9905F085FA002922D0641C082C00D173E70C98F6
:20496000A04028400A99002913D0002809D0B8B2079989B202460B4602F0C4FC089802F01D
:2049800059FF7F1CB8B20999401A0B998842E2D155E700280698D5D00898D3E7002652E73D
:2049A000D0C00000A0D2000090D8000010A90000F0B58BB00A460346E24906463778C81954
:2049C0004078761CC006F9D42D2F01D02B2F01D1307801E0761E384605F056FF01D30146A1
:2049E00001E0014620394E293FD0492959D1707805F04AFF00D220384E284CD1B07805F014
:204A000043FF00D22038462845D1002A01D0F01C1060F07805F038FF00D2203849281FD110
:204A2000307905F031FF00D220384E2818D1707905F02AFF00D22038492811D1B07905F07D
:204A400023FF00D2203854280AD1F07905F01CFF00D22038002A03D0592801D1083616600C
:204A60002D2F00D1C7E0BA49C6E0707805F00CFF00D2203841280ED1B07805F005FF00D26C
:204A800020384E2807D1B0490024002A00D127E1F01C106024E1002A00D0136000242146D7
:204AA0001EE1AC490791002530280292049317D1707805F0E9FE00D22038582810D1B07863
:204AC000A04909184978890707D42E2808D1F0789C4908184078800702D5B61C9E4807909F
:204AE0002C469C4B05F0D4FE411E884108909A4B059505F0CDFE411E884103900A950695A2
:204B00002B46294632782E2A03D1002939D1012135E009911446303C0A2C01D3002100E00A
:204B200001210898084201D0284611E00398002827D0844881184978890722D528460A2C2E
:204B400006D3114661391A2900D2203A1446373CE200824B99189D584C680A99059A079B62
:204B600003F0C2F92A46234601F049FC05460A910999002902D00698401E06900123761CAD
:204B8000C0E701202D2F099003D1C0070A9941400A91069FBC0003980028204600D1384625
:204BA000002B00D181E00899002909D01346613B1A2B01D3134601E01346203B452B09D0B0
:204BC0000399002912D01346613B1A2B00D2203A502A0DD172782D2A019501D02B2A0DD195
:204BE000B11C0491B4780023DB430BE004963DE0049627463AE05549002471E0711C0491EE
:204C0000002314462546303D092D25D800234D25AD00303C092C24D82D2A01D01E4600E0C1
:204C20005E423618F7177E40F61BAE42099F00D80027089939420AD10127B9028E4200D890
:204C400000270399394202D10A2159430B19049C611C64780491DCE70499C918491E04918D
:204C600000232D2A019D00D15B421F18002428460A992246234604F04DFC002815D1089886
:204C8000002817D04D20800087421ADD05F010FE22210160002428460A992246234604F0B7
:204CA00043FC002816D12A4915E02C46029A049B0A9912E028460A993A4603F0D5FA04465F
:204CC00009E0274887420EDC05F0F2FD22210160214600E01D49029A049B002A00D01360EC
:204CE00020460BB0F0BD002F15D41E4C029A049B002F0ED0F80709D00CCC28460A99083C17
:204D000003F0F2F8049B029A05460A917F080834EEE72C46CCE728467C42124D029A049B12
:204D2000002C0CD0E10707D00CCD0A99083D02F0F5FB049B029A0A9164080835F0E7044669
:204D4000B6E7C04610DD00000000F87F0000F0FF0000F07F000024400000304018DE000024
:204D6000CCFEFFFFF0DE0000F0B58FB01C4615460E46521E591E92B28BB20D90314602F03A
:204D8000C1FA0894A64200D3A5E00D98C043F143089A89188CB2A34B1A4602946243520C38
:204DA000032403946243891A491C069189B2032901D100220692149C421903290A95019295
:204DC00000D185E091B2184605914843400C03994843101A401C81B20027049103290E9722
:204DE00009D00E9007E00C9EB61C099FBF1CB8B2079988426CD00C960D98A84209972BD278
:204E0000049803280D9E15D000270D9E204602F011FD0120384380B20E998DB2A84208D08D
:204E2000204602F007FDB61CBF1CB8B2A842EDD100E0761C059802280A9D099F0CD320468A
:204E400002F0F8FC204602F0F5FC204602F0F2FCF61CB0B2A842F2D3012138460B91084333
:204E600080B2069989B2884230D007910D98A842B9D2049803280D9F16D000250D9F20461A
:204E800002F0D8FC28460B99084380B20E998EB2B04208D0204602F0CDFCBF1CAD1CA8B2ED
:204EA000B042ECD100E07F1C059802280A9D9AD3204602F0BFFC204602F0BCFC204602F072
:204EC000B9FCFF1CB8B2A842F2D38CE70C9E761C0298022801D20FB0F0BD019A90B20B90BF
:204EE00050494143480C03994143501A401C0E9080B20990032808D100200E9005E00C9EA1
:204F0000F61CB0B208998842E5D20C960D98A842F5D2099803280D9E15D000270D9E20466F
:204F200002F088FC0120384380B20E998DB2A84208D0204602F07EFCB61CBF1CB8B2A842B2
:204F4000EDD100E0761C0B9802280A9D0CD3204602F070FC204602F06DFC204602F06AFC8B
:204F6000F61CB0B2A842F2D30D98A842C7D2099803280D9E15D000270D9E204602F05AFC0A
:204F80000120384380B20E998DB2A84208D0204602F050FCB61CBF1CB8B2A842EDD100E058
:204FA000761C0B9802280A9D0CD3204602F042FC204602F03FFC204602F03CFCF61CB0B2DF
:204FC000A842F2D30D98A84299D2099803280D9E15D000270D9E204602F02CFC01203843DE
:204FE00080B20E998DB2A84208D0204602F022FCB61CBF1CB8B2A842EDD100E0761C0B988D
:2050000002280A9D00D27AE7204602F013FC204602F010FC204602F00DFCF61CB0B2A84202
:20502000F2D36CE7ABAA0000F0B593B08D4C0094002614257822282330462946FFF794FEFD
:2050400010200094069001900296874A0A2003952946334604F0BEFD0125089637460596C7
:205060000A96AE000995079601E00027099D012F18D10124089803282DD80A9D784400790F
:2050800040008744015C2A50322003F077FD784800687E4904F08EFA002878D005F0D2FAD9
:2050A00001245FE000242046214602F0B1F90BAE30466E492A463B4605F002F869480090F8
:2050C0000698019002940A2028213246079E234604F080FD3C460A989BE0674C20680027A0
:2050E000394604F053FA246801210491CE07002800D07440614D2868394604F047FA2968A9
:20510000002800D07140204603F01FF93F21090603F0E2FB06465A4904F038FA00280A9D52
:2051200023D1039C22E0282003F028FD50480068504904F03FFA002827D1032028E0322017
:2051400003F01CFD4F480078022827D00124032808D105F077FA022008900020C043059012
:20516000284656E00894284653E0232404988107304604F00BFA002800D03C240598002857
:2051800009D413D06142204612E005F05BFA0020089028463DE06042214609E005F052FA94
:2051A0000220089001240594284632E00020014602F02EF98120C105304604F0FBF900288A
:2051C00012D03048007801280ED12F48C0570124E143884208DB022806DC05F033FA681CBF
:2051E00003210891059713E03046284904F0E2F9002803D102200890049C08E03846394672
:2052000002F006F905F01EFA059708973C462846079E0025B0422F4600D02746B04200D035
:20522000054603F09FFB03280A9505D002280FD00128099D06D01AE7002F00DD15E77F1CA5
:20524000099D14E7042D01DC6D1C0AE7012508E70F48012101700020014602F0D9F813B039
:20526000F0BDC046FFFF0000BBE20000B0E00000B417202000007041B8172020C01720206E
:205280000000A0416B1320206A132020000020420E182020F0B589B08049002708970797DF
:2052A000069705970497421E0A2A65D87A44127952009744052C2C6205051818985F5F0084
:2052C000774A53781B0214781D19D3781B0294781F1953791B0214791C19D3791B02927998
:2052E0009E182346B2E06E494A7812020B78D518CA7812028B78D7184A7912020B79D41871
:20530000CA7912028B79D6182346097A9EE0644C627812022378D518E2781202A378D7183C
:20532000627912022379D2180392E2791202A379D618227A002A00D187E00297019500239A
:205340001F4604ADEA547A1CD2B2A3181B7A002B79D004ADAB54BA1CD2B2A3181B7A002B96
:2053600071D004ADAB54FF1CFBB2E218127A002AE7D168E04A49097868E0494C61780902EF
:2053800022788D18E1780902A2788F186179090222798B18E1790902A2798E18217A0902BA
:2053A000627A8918A27A002A50D003930297019500231F4604ADEA547A1CD2B2A3189B7AE4
:2053C000002B40D004ADAB54BA1CD2B2A3189B7A002B38D004ADAB54FF1CFBB2E218927A07
:2053E000002AE7D12FE02E4C627812022378D518E2781202A378D21802926279120223793A
:20540000D2180392E2791202A379D618237A002B1AD001953A4604ADEB55531CDBB2E518E2
:205420002F7A002F0FD004ADEF54931CDBB2E5182F7A002F07D004ADEF54D21CD7B2E31972
:205440001B7A002BE7D1019D029F039B154CA07225806780A380E68021810020211804AAC6
:20546000135CCB72002B0AD00B31121853784B70002B04D092788A70C01C002AEED10A4875
:2054800000900B3409490A4A0A4B204604F032FF0348322105F0CCF909B0F0BDE70300000F
:2054A000381320209C1320203414202007E200002C14202030142020F0B5A5B004930892D2
:2054C0000E46074600240A947E4D22462B4604F03FF8002813D100247B4D38463146224645
:2054E0002B4604F02BF8002809D1002238463146134604F00FF800283C46354607D10AAA06
:205500002046294604F0CAF80A98401E0A900899087B0BAE412801D06D4800E06B4809906E
:20552000886801903020039030700022079220462946134603F0F8FF01210028029101D0E6
:20554000C8074540771C20462946079A134603F0E1FF00280DD124AA2046294604F09EF88F
:20556000249801210A1A2046294602F07DFE04460D462046294604F053FB064639460597CC
:2055800004F040F90690304604F0E2FE05F061F904460D460198471C20D305980699461889
:2055A000002220462946134603F0B4FF002848D1002220462946474B02F096FC04460D460A
:2055C00004F02EFB0999095C771C317004F0C0FE05F03FF904460D463E46E1E70BA8069959
:2055E0004618002F16D07F1E002220462946394B02F07AFC04460D4604F012FB0999095C13
:205600003246761C517004F0A3FE05F022F904460D46E6E73178099C204605F08BF8001B69
:2056200008280EDB0196741E089D079F099E2178304605F07FF8801B0E2805DD2770641EEF
:20564000F5E7089D079F04E00999081840782070019E37700A98297B4129049C01D070213D
:2056600000E05021069E059F224604F0A2F9AA68501C04D1384605F0CDF8421EAA60384627
:205680003146234604F006FEA8680028029A02D128680007C20F38463146234603F0A2FE32
:2056A000287B412801D0782000E0582021684A1E226008702068411E21600399017025B0E8
:2056C000F0BDC0460000F07F0000F0FF4CE000005DE0000000003040F0B591B0734D0095A5
:2056E0000027142478222823384621460493FFF73BFB102000950690019002976C4A0A2059
:2057000021463B4604F066FA012205973E463D4605E0022826462A46089D00D1BCE0012E5B
:2057200012D1022F2BD0012F17D0002F37D114462D2003F023FA5F480068634903F03AFF6E
:2057400000282ED1002067E0079700200146144601F05EFE2246284667E01446282003F05D
:205760000DFA56480078022829D003282CD104F069FF022007900020C04305904DE005982A
:205780001446002811D421D04A4800680121890703F0FCFE00281CD1372000211EE00797EF
:2057A000D9E704F04FFF012036E0424800680121890703F0EBFE00280ED104990DE004F0AB
:2057C00041FF0120059026E0012025E00020014604E04B20002101E03221002001F018FE75
:2057E00034480068344903F0E5FE002700280BD032480078012807D13148C0570021C94398
:20580000884201DB02280ADB2A4800682D4903F0D1FE002803D102200790284604E004F0C6
:2058200011FF681C0797059722469100002788423C4600D034468842394600D001460891EB
:2058400009AE304621491546234604F039FC174800900698019002970A20282132463B46A1
:2058600004F0B8F903F07EF8012807D00328079F00D04EE7002C07DC661C06E0042D079FF6
:2058800006DC2A466A1C04E000262A46089D46E70122089D264642E70D480121017000207F
:2058A000014601F0B5FD11B0F0BDC046FFFF0000C1E20000B4172020000040406B132020A0
:2058C0006A1320200000A04100003442BEE000000E182020F0B58BB06748684C684F397805
:2058E000002902D0012907D12046009000205022A0230146FFF738FA624E30686349884233
:2059000010D0644988420FD0644988420ED0654988420DD0654988420CD0654988420BD000
:20592000654A0AE0584A08E0594A06E05A4A04E05B4A02E05C4A00E05E4A397800294E480E
:2059400002D0012908D120460023102100AC0BC40A20014604F03EF93F20440130680068FD
:2059600004F09CFA02460B46544903A804F0A8FB534D29783878002905D1002803D1002019
:205980000C213D4A06E000290CD101280AD100200C213A4A0092019102900A201E2103AAC6
:2059A000234608E000230C2033490091019002930A201E2103AA04F00DF93068406804F0D0
:2059C0006DFA02460B463F4903A804F079FB29783878012905D1002803D100200C21264A22
:2059E00006E001290CD101280AD100200C21234A0092019102900A20322103AA234608E0CB
:205A000000230C201C490091019002930A20322103AA04F0DFF83068806804F03FFA024631
:205A20000B46294903A804F04BFB29783878022905D1002803D100200C210F4A06E00229B9
:205A40000CD101280AD100200C210C4A0092019102900A20462103AA234608E000230C202E
:205A600005490091019002930A20462103AA04F0B1F80BB0F0BDC046FFFF00003084000026
:205A80000F182020E8172020D9E00000FC162020CCE0000034172020D1E100006C172020A9
:205AA000E6E000008C1620202BE20000C416202054162020A0E1000068E2000070E2000050
:205AC0000918202093E2000077E20000F0B58FB004910546734E01902F78F3195B786D1C72
:205AE000DB06F9D470480021CC43631C0E93034608464B412D2F029403D02B2F0E946A4B57
:205B000002D12978059102E06D1E05970E94242A00DC1046102812D0002831D10A21059A42
:205B2000302A1FD16C7820222243782A1CD1A878059030184078800720D40C911BE0102009
:205B40000C90059830281CD16978302020220A43782A11D1A97805917218527892070BD5FF
:205B6000AD1C0EE00C910CE0302C02D3382C00D293E008200C903020059002E0AD1C102087
:205B80000C90039700270E981C4619460C9E32463B4604F0BBFD0990089132460B973B4625
:205BA00004F0DEFC0E9A101A06908C4107940A2E0A9601D30A200A900B990D910E91059F52
:205BC0003E46303E0A9A96420B9C1CD3354AD219507843063B460BD51E46373EF4170023DE
:205BE00005930C9BF31A2346059A93413B460AD382063DD5573BDC1700221E460C9BF31AC6
:205C00002346934134D2099B0E981A1A089F3A468A4118D302465A400B467B40134304D1CD
:205C2000069A921B079AA2410DD300230C9A04F097FC30180E904C410D9A511CAA1857784B
:205C40000D912146BCE704F033FE222101600498002801D0019901600022029B581C1249B5
:205C60004A41039C2D2C00D018462D2C11D111E0049A002A039C05D00D9E002E019B00D0C6
:205C8000AB1913602D2C0E9803D1002240428A4100E00A4611460FB0F0BD05946D1C08204E
:205CA0006EE7C04610DD0000FFFFFF7FF0B571480068810C40220A40410C20230B40991895
:205CC000430A102213405918800B082304461C4061180424054625406918022506462E4072
:205CE000711801263040471863480770634800210170FFB27F1E7B2F00D9BAE07F00C046D6
:205D00007F44BF887F00BF447B00870095008900B400910099009B00B400B400B400A3009F
:205D2000B400B400A1008500B400B400B400B400B400B400B4009300B400B400B400B40086
:205D4000B400B400AA008D00B400B400B400B400B400B400B400B400B400B400B400B40034
:205D6000B400B400B4008100B400B400B400B400B400B400B4009D00B400B400B400B4002D
:205D8000B400B400B4009F00B400B400B400B400B400B400B400B400B400B400B400B400D8
:205DA000B400B400B400B400B400B400B400B400B400B400B400A700B400B400B400A500BF
:205DC000B400B400B4007D00B400B400B400B400B400B400B4008F00B400B400B400A900EA
:205DE000B400B400B4007F00B400B400B4008B00B400B400B4008300B400B400B40097000F
:205E00000F212CE01A212AE0052128E0182126E0214624E0172122E0112120E013211EE08B
:205E200009211CE019211AE00D2118E0122116E0162114E0114612E0032110E029460EE0D4
:205E400015210CE006210AE01B2108E0314606E0142104E0072102E00C2100E019460320DC
:205E60004843074908184178064A1170807803490870F0BD80130A40C61320206B13202080
:205E800098DE00006A132020F0B5A3B003930F46044604929168002903D0002904D50621EE
:205EA00000E001210498816007910AA83021089101700025204639462A462B4603F034FBB1
:205EC00001210028059101D0C8074740624E20463946604A334603F045FB002809D00022AD
:205EE000204639465E4B01F019FB04460F466D1CEDE75A4E0022204639460992134603F07D
:205F000009FB002811D1002220463946334603F00BFB002809D0002220463946504B01F066
:205F2000E3FF04460F466D1EE4E702950AA8451C2046394603F074FE0695294603F062FC3B
:205F400007998842019004DD481C0AA90A18085C1FE0C9430E180AA90D18681C079020463E
:205F6000394603F05DFE04F0F3F902460B462046394600F03FFA0022394B01F0B5FF044638
:205F80000F4603F04DFE079A30306870761C1546E3D3C0B23528039E049F029B099D0FD3BA
:205FA0001446501E0178491CCAB201703A2A03D330210170401EF5E70AA98842224640D023
:205FC0000198C41815700220C043844202DBB868844207DD601E397B891EC9B2324603F076
:205FE000E8FC0124069804F015FC401E0599A0421ADB0028089A01D4069A125C1346303BB1
:206000005D1EAB41C9431943C90705D13978090702D40025059905E031684B1E33600A70BD
:2060200001250021401EE2E73868082202402A43501E824106982146334603F0D3F923B038
:20604000F0BD501E002101700198C018441C0AA80690B8E70000C0FFFFFFDF410000F03FCF
:2060600000002440F0B581B004466848C06802F067F90546664903F0A7FA00281FD0654E1A
:20608000634F2846314602F060F90546394603F09BFA002813D02846314602F056F9054650
:2060A000394603F091FA002809D02846314602F04CF90546394603F087FA0028E1D156490F
:2060C000284603F06DFA00281FD0544E524F2846314602F03AF90546394603F061FA002854
:2060E00013D02846314602F030F90546394603F057FA002809D02846314602F026F905466D
:20610000394603F04DFA0028E1D12046294602F017F904463E4903F057FA00281FD03D4D5F
:206120003B4E2046294602F010F90446314603F04BFA002813D02046294602F006F90446F2
:20614000314603F041FA002809D02046294602F0FCF80446314603F037FA0028E1D12E49A8
:20616000204603F01DFA00281FD02C4D2A4E2046294602F0EAF80446314603F011FA002817
:2061800013D02046294602F0E0F80446314603F007FA002809D02046294602F0D6F80446E8
:2061A000314603F0FDF90028E1D11D49204602F093FB05461B4C214603F006FA07461A4E98
:2061C0002846314603F0E2F9002800D12E46002F00D134460D488168204602F0B1F813498A
:2061E00002F07AFB0546124C214603F0EDF90746104E2846314603F0C9F9002800D12E469D
:20620000002F00D13446204601B0F0BD10142020000034430000B4C3000034C30000B44300
:206220000000404000008C4200008CC2CDCC0C3F0000A0410000A0C1F0B585B0242803D1A2
:20624000664901220A7046E0232840D161490978614B1A7891423AD1604A00261670604A29
:206260001670604A1670604D4919491E09785F4C22784906090E8A4227D1039068780290FD
:20628000E878010613D0C4B2601E032103F0E6FD491C0329304600D0084600910190032C50
:2062A0003746334634D20098032801986AD100204E490880484908704B48642104F0B8FA45
:2062C0000298FEF7E7FF039801E01E70268043490978012913D1242803D141490A78002A28
:2062E00012D03D490B785A1C0A703F4AD0543F490B88181808803B490878002801D005B091
:20630000F0BD1078334A10700120087005B0F0BD0198201A049000263746334609E0531C75
:20632000D1B2334A545400270546F61C0498B042B9D02846AC1922792C2555403D436F1E59
:206340002946B941002D04D05F1CDBB2284DEA5400E01F4663791A462C3A5542554129409B
:2063600001D03A4603E07A1CFDB2214F7B55A47923462C3B5D425D41012779400D42CED06C
:206380001346D1E77119491D194A06E06B1CECB216550027891C801E89D04C1E26782C2507
:2063A00075403D436F1E2C46BC41002D03D05D1CDBB2D65400E01D46012800D177E70E785B
:2063C00033462C3B5F425F413C42DFD001272B46E0E7C04608182020101820200D182020DC
:2063E000131820200B182020A01520200218202038132020FCB40124E407634002E0FCB400
:206400000124E40708B41D03ED08D60D354356025F007F0D06D12C00344300D0AEE001B074
:20642000FCBC7047A408254307242402FF34A74205D10020190D090501B0FCBC7047002BF7
:2064400003D50024A61BAC4125000B03DB08C20D134342024800400D07D11C00144300D063
:206460008CE00EBC1000F0BC704701246407234307242402FF34A04205D10020090D0905FD
:2064800001B0FCBC7047002903D50024A21A9C412300C11B08D51C002B0025001400320090
:2064A00026000024611A3800362925D502B4393949420C00203C03D22F008F40374301E03D
:2064C0003700A740002F01D040210E4302BC20290BD500290ED04C42203420B4A5402C0037
:2064E00020BC0D41CE40361904E000292E000D4120390E4192196B411C0014433ED00024E8
:20650000002B04D5012400218A1A99410B00401E52005B41FBD50121890215000D400CD0A1
:20652000521800277B4101D3401C0BE00721C90115000D4001D189008A43072109028A4377
:2065400052005B41801C19DD07210902FF31884209D30EBC0020C90F0902FF31C900C91D06
:206560000905F0BC7047190B00050143E40721431805120B104301B0FCBC70470021002000
:2065800001B0FCBC7047FEE7F0B58BB014460391574D06463378E9184978761CC906F9D49D
:2065A000242C00DD002401272B2B02D02D2B02D10027337800E0761E102C10D0002C2BD185
:2065C0000A24302B28D1737820211943782916D1B378E9184978890717D430231CE010243E
:2065E000302B19D17378302120221A43782A04D1B378EA18527892070AD40B460CE0302BFE
:2066000001D3382B06D3302305E0B61C102403E0B61C01E0761C08240197029020460A2C12
:20662000069401D30A20069000200A9007460590099004961D46303D06988542059811D3A7
:206640002B48C11849784A0605D51D46373DA54201D2E81706E0890632D5573BA3422FD27F
:20666000D8171D460790E6170A98089739462246334603F075FF22460F462D180798474103
:2066800028463946334604F041F8089A51400A9A5040084307D10998411C049E301843783A
:2066A0000A950991C6E70020C44304F001F9222101600398002801D002990160214614E050
:2066C00003980028019A0A9C394605D0099D002D029B00D073190360002063428841002A7B
:2066E00000D11C46002A00D1014620460BB0F0BD10DD000070B54C4B1846183885220260F7
:206700000120040249490C601C46143C226044020C601C462C3C226080220A60444A141F55
:206720008625256004030C601C46103C822525601E460C3E3F4C34601E46283E35601E464C
:20674000243E34601E46083E35601D1F2C601546083D83262E60DE61651C9D61812595620A
:206760009564556455631E46583E35601E464C3E3560156255621E46483E35602E4D1565FB
:20678000166D16651566166E16665566556E5566641E1D46603D2C601D465C3D2C60274C3E
:2067A0001C601D681D605C605D685D60D464D36CD3641463136B136314601368136014612D
:2067C00013691361D460D368D3609460936893605460536853600A46303A194B13600B6027
:2067E000184A136805210B431360174B1C6A032214431C621C6814431C608B235B04134C30
:206800002361C00420608F2040042064104803680904194301600F48016A1202114301621F
:2068200001681143016070BD64804240D0120A408C8042408200040081000E0081000C004B
:206840000400809090130A4028100A4090320A4090330A4028300A40F0B585B00446C260B4
:206860000161104601F06CFD06464A4902F0ACFE07464949304601F068FD0546002F00D195
:2068800035464649284602F081FE06464449284601F05BFD0746002E00D12F46676121686D
:2068A000384602F019F8029020626068656A0497394602F011F8294601F047FD06466062E5
:2068C000606B03F0C5FD07463046394602F07CFE05460028384600D1304600900396012107
:2068E000C90701914F40394602F050FE0646401E8641002D009D05D12846394602F046FEB4
:20690000002804D0002E00D12F4667620397A568A1690498009101F013FD0146284601F0B9
:20692000DBFF0546A0620298039901F00EFD0146284601F00AFD0546E062206B03F088FDC1
